{"contracts/TouristID.sol":{"TouristID":{"abi":[{"inputs":[],"stateMutability":"nonpayable","type":"constructor"},{"inputs":[],"name":"ECDSAInvalidSignature","type":"error"},{"inputs":[{"internalType":"uint256","name":"length","type":"uint256"}],"name":"ECDSAInvalidSignatureLength","type":"error"},{"inputs":[{"internalType":"bytes32","name":"s","type":"bytes32"}],"name":"ECDSAInvalidSignatureS","type":"error"},{"inputs":[{"internalType":"address","name":"owner","type":"address"}],"name":"OwnableInvalidOwner","type":"error"},{"inputs":[{"internalType":"address","name":"account","type":"address"}],"name":"OwnableUnauthorizedAccount","type":"error"},{"inputs":[],"name":"ReentrancyGuardReentrantCall","type":"error"},{"anonymous":false,"inputs":[{"indexed":true,"internalType":"address","name":"authority","type":"address"},{"indexed":false,"internalType":"string","name":"name","type":"string"},{"indexed":false,"internalType":"uint256","name":"timestamp","type":"uint256"}],"name":"AuthorityAdded","type":"event"},{"anonymous":false,"inputs":[{"indexed":true,"internalType":"bytes32","name":"profileId","type":"bytes32"},{"indexed":true,"internalType":"address","name":"accessor","type":"address"},{"indexed":false,"internalType":"uint256","name":"timestamp","type":"uint256"}],"name":"EmergencyAccessed","type":"event"},{"anonymous":false,"inputs":[{"indexed":true,"internalType":"address","name":"previousOwner","type":"address"},{"indexed":true,"internalType":"address","name":"newOwner","type":"address"}],"name":"OwnershipTransferred","type":"event"},{"anonymous":false,"inputs":[{"indexed":true,"internalType":"bytes32","name":"profileId","type":"bytes32"},{"indexed":true,"internalType":"address","name":"touristAddress","type":"address"},{"indexed":false,"internalType":"bytes32","name":"profileHash","type":"bytes32"},{"indexed":false,"internalType":"uint256","name":"timestamp","type":"uint256"}],"name":"ProfileCreated","type":"event"},{"anonymous":false,"inputs":[{"indexed":true,"internalType":"bytes32","name":"profileId","type":"bytes32"},{"indexed":true,"internalType":"address","name":"authority","type":"address"},{"indexed":false,"internalType":"string","name":"reason","type":"string"},{"indexed":false,"internalType":"uint256","name":"timestamp","type":"uint256"}],"name":"ProfileRevoked","type":"event"},{"anonymous":false,"inputs":[{"indexed":true,"internalType":"bytes32","name":"profileId","type":"bytes32"},{"indexed":true,"internalType":"address","name":"authority","type":"address"},{"indexed":false,"internalType":"uint8","name":"verificationLevel","type":"uint8"},{"indexed":false,"internalType":"uint256","name":"timestamp","type":"uint256"}],"name":"ProfileVerified","type":"event"},{"inputs":[{"internalType":"address","name":"_authority","type":"address"},{"internalType":"string","name":"_name","type":"string"}],"name":"addVerificationAuthority","outputs":[],"stateMutability":"nonpayable","type":"function"},{"inputs":[{"internalType":"address","name":"","type":"address"}],"name":"addressToProfileId","outputs":[{"internalType":"bytes32","name":"","type":"bytes32"}],"stateMutability":"view","type":"function"},{"inputs":[{"internalType":"uint256","name":"","type":"uint256"}],"name":"allProfileIds","outputs":[{"internalType":"bytes32","name":"","type":"bytes32"}],"stateMutability":"view","type":"function"},{"inputs":[{"internalType":"uint256","name":"","type":"uint256"}],"name":"authorityAddresses","outputs":[{"internalType":"address","name":"","type":"address"}],"stateMutability":"view","type":"function"},{"inputs":[{"internalType":"bytes32[]","name":"_profileIds","type":"bytes32[]"},{"internalType":"uint8","name":"_verificationLevel","type":"uint8"}],"name":"batchVerifyProfiles","outputs":[],"stateMutability":"nonpayable","type":"function"},{"inputs":[{"internalType":"bytes32","name":"_profileHash","type":"bytes32"},{"internalType":"bytes32","name":"_documentHash","type":"bytes32"},{"internalType":"string","name":"_ipfsDocumentHash","type":"string"},{"internalType":"string","name":"_emergencyContact","type":"string"}],"name":"createTouristProfile","outputs":[{"internalType":"bytes32","name":"","type":"bytes32"}],"stateMutability":"nonpayable","type":"function"},{"inputs":[{"internalType":"bytes32","name":"_profileId","type":"bytes32"}],"name":"emergencyAccess","outputs":[{"internalType":"string","name":"","type":"string"}],"stateMutability":"nonpayable","type":"function"},{"inputs":[{"internalType":"bytes32","name":"_profileId","type":"bytes32"}],"name":"getProfile","outputs":[{"internalType":"bytes32","name":"profileHash","type":"bytes32"},{"internalType":"bytes32","name":"documentHash","type":"bytes32"},{"internalType":"string","name":"ipfsDocumentHash","type":"string"},{"internalType":"address","name":"touristAddress","type":"address"},{"internalType":"uint256","name":"createdAt","type":"uint256"},{"internalType":"uint8","name":"verificationLevel","type":"uint8"},{"internalType":"bool","name":"isActive","type":"bool"}],"stateMutability":"view","type":"function"},{"inputs":[{"internalType":"address","name":"_touristAddress","type":"address"}],"name":"getProfileIdByAddress","outputs":[{"internalType":"bytes32","name":"","type":"bytes32"}],"stateMutability":"view","type":"function"},{"inputs":[],"name":"getTotalProfiles","outputs":[{"internalType":"uint256","name":"","type":"uint256"}],"stateMutability":"view","type":"function"},{"inputs":[{"internalType":"bytes32","name":"_profileId","type":"bytes32"}],"name":"getVerificationLevel","outputs":[{"internalType":"uint8","name":"","type":"uint8"}],"stateMutability":"view","type":"function"},{"inputs":[{"internalType":"bytes32","name":"_profileId","type":"bytes32"}],"name":"isProfileVerified","outputs":[{"internalType":"bool","name":"","type":"bool"}],"stateMutability":"view","type":"function"},{"inputs":[],"name":"owner","outputs":[{"internalType":"address","name":"","type":"address"}],"stateMutability":"view","type":"function"},{"inputs":[],"name":"renounceOwnership","outputs":[],"stateMutability":"nonpayable","type":"function"},{"inputs":[{"internalType":"bytes32","name":"_profileId","type":"bytes32"},{"internalType":"string","name":"_reason","type":"string"}],"name":"revokeProfile","outputs":[],"stateMutability":"nonpayable","type":"function"},{"inputs":[{"internalType":"bytes32","name":"","type":"bytes32"}],"name":"revokedProfiles","outputs":[{"internalType":"bool","name":"","type":"bool"}],"stateMutability":"view","type":"function"},{"inputs":[{"internalType":"bytes32","name":"","type":"bytes32"}],"name":"touristProfiles","outputs":[{"internalType":"bytes32","name":"profileHash","type":"bytes32"},{"internalType":"bytes32","name":"documentHash","type":"bytes32"},{"internalType":"string","name":"ipfsDocumentHash","type":"string"},{"internalType":"address","name":"touristAddress","type":"address"},{"internalType":"uint256","name":"createdAt","type":"uint256"},{"internalType":"uint8","name":"verificationLevel","type":"uint8"},{"internalType":"bool","name":"isActive","type":"bool"},{"internalType":"string","name":"emergencyContact","type":"string"}],"stateMutability":"view","type":"function"},{"inputs":[{"internalType":"address","name":"newOwner","type":"address"}],"name":"transferOwnership","outputs":[],"stateMutability":"nonpayable","type":"function"},{"inputs":[{"internalType":"address","name":"","type":"address"}],"name":"verificationAuthorities","outputs":[{"internalType":"address","name":"authority","type":"address"},{"internalType":"string","name":"name","type":"string"},{"internalType":"bool","name":"isActive","type":"bool"},{"internalType":"uint256","name":"addedAt","type":"uint256"}],"stateMutability":"view","type":"function"},{"inputs":[{"internalType":"bytes32","name":"_profileId","type":"bytes32"},{"internalType":"uint8","name":"_verificationLevel","type":"uint8"}],"name":"verifyProfile","outputs":[],"stateMutability":"nonpayable","type":"function"},{"inputs":[{"internalType":"bytes32","name":"_profileId","type":"bytes32"},{"internalType":"bytes32","name":"_message","type":"bytes32"},{"internalType":"bytes","name":"_signature","type":"bytes"}],"name":"verifyProfileSignature","outputs":[{"internalType":"bool","name":"","type":"bool"}],"stateMutability":"view","type":"function"}],"evm":{"bytecode":{"linkReferences":{},"object":"608060409080825234620003415733156200032b5750600080546001600160a01b03198082163390811784556001600160a01b039283167f8be0079c531659141344cd1fd0a4f28419497f9722a3daafe3b4186f6b6457e08580a3600180805584516001600160401b0394906080810186811182821017620003175787523381528651948786018681108882111762000303578852601486527f53797374656d2041646d696e6973747261746f7200000000000000000000000096602096888882015287840190815289840191868352606085019342855233875260048a528b87209551168886541617855586850191518051918211620002ef5782548881811c91168015620002e4575b8b821014620002d057601f811162000285575b508990601f83116001146200021957600395949392918891836200020d575b505060001982871b1c191690881b1790555b600284019051151560ff80198354169116179055519101556007549168010000000000000000831015620001f957820180600755821015620001e5578060078592522001903390825416179055825191838352601484840152606083015242908201527f54e81c259e04bcea04e7cb5c69e158fac7ddece0b1a19eefa2954cd6425c959960803392a2516117ec9081620003478239f35b634e487b7160e01b81526032600452602490fd5b634e487b7160e01b82526041600452602482fd5b0151905038806200013c565b949392918891601f19821690848a528c8a20918d8b905b8282106200026d57505097836003991062000254575b505050811b0190556200014e565b015160001983891b60f8161c1916905538808062000246565b838b015185558d969094019392830192018e62000230565b8388528a8820601f840160051c8101918c8510620002c5575b601f0160051c019089905b828110620002b95750506200011d565b898155018990620002a9565b90915081906200029e565b634e487b7160e01b88526022600452602488fd5b90607f16906200010a565b634e487b7160e01b87526041600452602487fd5b634e487b7160e01b84526041600452602484fd5b634e487b7160e01b83526041600452602483fd5b631e4fbdf760e01b815260006004820152602490fd5b600080fdfe608080604052600436101561001357600080fd5b60003560e01c908163070117c4146112b757508063173e5660146111dc5780632551cb8714610ef757806336677f3414610e535780633fdea87014610d005780634af1dc7a14610cc65780635095296514610c175780635ac4bfc014610abd578063608ae43514610a42578063715018a6146109e95780637f9f01891461049b57806384b2245e146104645780638a4a2244146103825780638da5cb5b14610359578063926c643a14610328578063b50991b41461025a578063b69dab6814610218578063bab17ce9146101fa578063cc8bfbf5146101c8578063f2fde38b1461013f5763fb2c55771461010657600080fd5b3461013a57602036600319011261013a576004356000526002602052602060ff600560406000200154161515604051908152f35b600080fd5b3461013a57602036600319011261013a576101586112ed565b61016061153e565b6001600160a01b039081169081156101af57600054826001600160601b0360a01b821617600055167f8be0079c531659141344cd1fd0a4f28419497f9722a3daafe3b4186f6b6457e0600080a3005b604051631e4fbdf760e01b815260006004820152602490fd5b3461013a57602036600319011261013a576004356000526002602052602060ff60056040600020015416604051908152f35b3461013a57600036600319011261013a576020600654604051908152f35b3461013a57602036600319011261013a5760043560075481101561013a576102416020916114ba565b905460405160039290921b1c6001600160a01b03168152f35b3461013a57602036600319011261013a5760043580600052600260205261028a60046040600020015415156115c4565b6000526002602052604060002060058101549060ff8260081c169081610312575b80549160ff60018301549460018060a01b03600385015416936102f66102d8600260048401549301611414565b6040519889988952602089015260e0604089015260e088019061139a565b94606087015260808601521660a0840152151560c08301520390f35b600560205260406000205460ff161591506102ab565b3461013a57602036600319011261013a576004356000526005602052602060ff604060002054166040519015158152f35b3461013a57600036600319011261013a576000546040516001600160a01b039091168152602090f35b3461013a57604036600319011261013a5760043560243567ffffffffffffffff811161013a576103b690369060040161137c565b903360005260046020526103d460ff6002604060002001541661156a565b8060005260026020526103f060046040600020015415156115c4565b8060005260056020526040600020600160ff198254161790556002602052600560406000200161ff001981541690557f37cdc8c47aacef4d4b12b5824d1654b4650107c2aa06a6d76a71b580864e925b6104556040519360408552604085019061139a565b924260208201528033940390a3005b3461013a57602036600319011261013a5760043560065481101561013a5761048d602091611507565b90546040519160031b1c8152f35b3461013a57608036600319011261013a5760243560443567ffffffffffffffff811161013a576104cf90369060040161137c565b9060643567ffffffffffffffff811161013a576104f090369060040161137c565b906002600154146109d75760026001556004351561099b57801561095e573360005260036020526040600020546109095760405192602084019160043583528060408601523360601b60608601524260748601524460948601526094855260c085019285841067ffffffffffffffff851117610772578360405285519020936101c0860184811067ffffffffffffffff82111761077257604052600435845260e0860191825261010086019283523361012087015242610140870152600061016087015260016101808701526101a08601528360005260026020526040600020925183555160018301555180519067ffffffffffffffff8211610772576105fa60028401546113da565b601f81116108c2575b50602090601f831160011461084c5791806101a09492600694600092610841575b50508160011b916000199060031b1c19161760028201555b6003810160018060a01b03610120870151166001600160601b0360a01b82541617905561014085015160048201556005810160ff6101608701511681549061ff00610180890151151560081b169161ffff1916171790550192015191825167ffffffffffffffff8111610772576106b382546113da565b601f81116107f9575b506020601f82116001146107935781929394600092610788575b50508160011b916000199060031b1c19161790555b3360005260036020528060406000205560065490600160401b8210156107725761071d82600160209401600655611507565b81549060031b9083821b91600019901b191617905560405160043581524283820152817f12b80ffb2a05f75dc3234f6d754502fc4b2f889b30622872e21f26116bd9f49060403393a360018055604051908152f35b634e487b7160e01b600052604160045260246000fd5b0151905084806106d6565b601f198216908360005260206000209160005b8181106107e1575095836001959697106107c8575b505050811b0190556106eb565b015160001960f88460031b161c191690558480806107bb565b9192602060018192868b0151815501940192016107a6565b826000526020600020601f830160051c81019160208410610837575b601f0160051c01905b81811061082b57506106bc565b6000815560010161081e565b9091508190610815565b015190508780610624565b906002840160005260206000209160005b601f19851681106108aa5750926101a0949260019260069583601f19811610610891575b505050811b01600282015561063c565b015160001960f88460031b161c19169055878080610881565b9192602060018192868501518155019401920161085d565b600284016000526020600020601f840160051c810160208510610902575b601f830160051c820181106108f6575050610603565b600081556001016108e0565b50806108e0565b60405162461bcd60e51b815260206004820152602760248201527f50726f66696c6520616c72656164792065786973747320666f722074686973206044820152666164647265737360c81b6064820152608490fd5b60405162461bcd60e51b8152602060048201526015602482015274092dcecc2d8d2c840c8dec6eadacadce840d0c2e6d605b1b6044820152606490fd5b60405162461bcd60e51b8152602060048201526014602482015273092dcecc2d8d2c840e0e4deccd2d8ca40d0c2e6d60631b6044820152606490fd5b604051633ee5aeb560e01b8152600490fd5b3461013a57600036600319011261013a57610a0261153e565b600080546001600160a01b0319811682556001600160a01b03167f8be0079c531659141344cd1fd0a4f28419497f9722a3daafe3b4186f6b6457e08280a3005b3461013a57602036600319011261013a576001600160a01b0380610a646112ed565b166000526004602052604060002090815416610a8260018301611414565b91600360ff600283015416910154610aac604051948594855260806020860152608085019061139a565b911515604084015260608301520390f35b3461013a57604036600319011261013a5767ffffffffffffffff60043581811161013a573660238201121561013a57806004013591821161013a5760248082019260059282369183861b01011161013a57610b16611303565b903360005260209060048252600290610b3860ff83604060002001541661156a565b60019660ff85168881101580610c0d575b610b5290611609565b60005b838110610b5e57005b610b698185856117a6565b35600052848652600460406000200154610ba3575b6000198114610b8e578901610b55565b87634e487b7160e01b60005260116004526000fd5b610bae8185856117a6565b35600052848652886040600020018260ff19825416179055610bd18185856117a6565b6040805160ff8a168152426020820152339235917fa14aab4de4b6c7da4decdd5a02c67d162ab06e051badec5ab309376b413f4efb91a3610b7e565b5083811115610b49565b3461013a57602036600319011261013a57600435600052600260205260406000208054610cc2600183015492610c4f60028201611414565b60ff60018060a01b03600384015416926004810154610c97610c78600660058501549401611414565b94604051998a998a5260208a01526101008060408b015289019061139a565b946060880152608087015281811660a087015260081c16151560c085015283820360e085015261139a565b0390f35b3461013a57602036600319011261013a576001600160a01b03610ce76112ed565b1660005260036020526020604060002054604051908152f35b3461013a57606036600319011261013a5760043560443567ffffffffffffffff811161013a573660238201121561013a57610d45903690602481600401359101611335565b8160005260209160028352610d6360046040600020015415156115c4565b806000526002835260ff60056040600020015460081c1615610e1657806000526005835260ff60406000205416610dd15790610dc7916000526002835260018060a01b03610dbe816003604060002001541692602435611655565b90949194611721565b6040519216148152f35b60405162461bcd60e51b815260048101849052601860248201527f50726f66696c6520686173206265656e207265766f6b656400000000000000006044820152606490fd5b60405162461bcd60e51b815260048101849052601560248201527450726f66696c65206973206e6f742061637469766560581b6044820152606490fd5b3461013a5760208060031936011261013a576004353360005260048252610e8460ff6002604060002001541661156a565b8060005260028252610e9f60046040600020015415156115c4565b604051428152817fec24f061e280cd3bd040dc2005c4fbeb0f7f045a944cb941723cea128bf3f583843393a360005260028152610ee26006604060002001611414565b90610cc260405192828493845283019061139a565b3461013a57604036600319011261013a57610f106112ed565b67ffffffffffffffff60243581811161013a57610f3190369060040161137c565b91610f3a61153e565b6001600160a01b03908116928315611197578360005260206004815260ff60026040600020015416611153576040516080810181811086821117610772576040528581528181019483865260408201600196878252606084019242845289600052600486528760406000209551166001600160601b0360a01b8654161785558885019151805191821161077257610fd183546113da565b601f811161110a575b508690601f83116001146110a2576003959493929160009183611097575b505060001982871b1c1916908a1b1790555b600284019051151560ff801983541691161790555191015560075492600160401b84101561077257611065847f54e81c259e04bcea04e7cb5c69e158fac7ddece0b1a19eefa2954cd6425c95999661108c96016007556114ba565b819291549060031b9188831b921b191617905560405192839260408452604084019061139a565b9042908301520390a2005b015190508c80610ff8565b949392918a91601f1982169084600052896000209160005b8b8282106110f45750509783600399106110dc575b505050811b01905561100a565b015160001983891b60f8161c191690558c80806110cf565b838b015185558f969094019392830192016110ba565b8360005287600020601f840160051c810191898510611149575b601f0160051c01908b905b82811061113d575050610fda565b60008155018b9061112f565b9091508190611124565b6064906040519062461bcd60e51b82526004820152601860248201527f417574686f7269747920616c72656164792065786973747300000000000000006044820152fd5b60405162461bcd60e51b815260206004820152601960248201527f496e76616c696420617574686f726974792061646472657373000000000000006044820152606490fd5b3461013a57604036600319011261013a576004356111f8611303565b9033600052600460205261121660ff6002604060002001541661156a565b80600052600260205261123260046040600020015415156115c4565b60ff82166001811015806112ac575b61124a90611609565b81600052600260205260056040600020019060ff198254161790557fa14aab4de4b6c7da4decdd5a02c67d162ab06e051badec5ab309376b413f4efb604051806112a733954290836020909392919360ff60408201951681520152565b0390a3005b506002811115611241565b3461013a57602036600319011261013a576020906001600160a01b036112db6112ed565b16600052600382526040600020548152f35b600435906001600160a01b038216820361013a57565b6024359060ff8216820361013a57565b90601f8019910116810190811067ffffffffffffffff82111761077257604052565b92919267ffffffffffffffff8211610772576040519161135f601f8201601f191660200184611313565b82948184528183011161013a578281602093846000960137010152565b9080601f8301121561013a5781602061139793359101611335565b90565b919082519283825260005b8481106113c6575050826000602080949584010152601f8019910116010190565b6020818301810151848301820152016113a5565b90600182811c9216801561140a575b60208310146113f457565b634e487b7160e01b600052602260045260246000fd5b91607f16916113e9565b9060405191826000825492611428846113da565b9081845260019485811690816000146114975750600114611454575b505061145292500383611313565b565b9093915060005260209081600020936000915b81831061147f57505061145293508201013880611444565b85548884018501529485019487945091830191611467565b91505061145294506020925060ff191682840152151560051b8201013880611444565b6007548110156114f15760076000527fa66cc928b5edb82af9bd49922954155ab7b0942694bea4ce44661d9a8736c6880190600090565b634e487b7160e01b600052603260045260246000fd5b6006548110156114f15760066000527ff652222313e28459528d920b65115c16c04f3efc82aaedc97be59f3f377c0d3f0190600090565b6000546001600160a01b0316330361155257565b60405163118cdaa760e01b8152336004820152602490fd5b1561157157565b60405162461bcd60e51b815260206004820152602560248201527f4e6f7420617574686f72697a656420766572696669636174696f6e20617574686044820152646f7269747960d81b6064820152608490fd5b156115cb57565b60405162461bcd60e51b8152602060048201526016602482015275141c9bd99a5b1948191bd95cc81b9bdd08195e1a5cdd60521b6044820152606490fd5b1561161057565b60405162461bcd60e51b815260206004820152601a60248201527f496e76616c696420766572696669636174696f6e206c6576656c0000000000006044820152606490fd5b81519190604183036116865761167f92506020820151906060604084015193015160001a90611691565b9192909190565b505060009160029190565b91907f7fffffffffffffffffffffffffffffff5d576e7357a4501ddfe92f46681b20a0841161171557926020929160ff608095604051948552168484015260408301526060820152600092839182805260015afa156117095780516001600160a01b0381161561170057918190565b50809160019190565b604051903d90823e3d90fd5b50505060009160039190565b60048110156117905780611733575050565b6001810361174d5760405163f645eedf60e01b8152600490fd5b6002810361176e5760405163fce698f760e01b815260048101839052602490fd5b6003146117785750565b602490604051906335e2f38360e21b82526004820152fd5b634e487b7160e01b600052602160045260246000fd5b91908110156114f15760051b019056fea264697066735822122046545c626915282809d7b9542275227f8d6adf7b8c90d224b39ca0df86d74cf964736f6c63430008140033","opcodes":"PUSH1 0x80 PUSH1 0x40 SWAP1 DUP1 DUP3 MSTORE CALLVALUE PUSH3 0x341 JUMPI CALLER ISZERO PUSH3 0x32B JUMPI POP PUSH1 0x0 DUP1 SLOAD PUSH1 0x1 PUSH1 0x1 PUSH1 0xA0 SHL SUB NOT DUP1 DUP3 AND CALLER SWAP1 DUP2 OR DUP5 SSTORE PUSH1 0x1 PUSH1 0x1 PUSH1 0xA0 SHL SUB SWAP3 DUP4 AND PUSH32 0x8BE0079C531659141344CD1FD0A4F28419497F9722A3DAAFE3B4186F6B6457E0 DUP6 DUP1 LOG3 PUSH1 0x1 DUP1 DUP1 SSTORE DUP5 MLOAD PUSH1 0x1 PUSH1 0x1 PUSH1 0x40 SHL SUB SWAP5 SWAP1 PUSH1 0x80 DUP2 ADD DUP7 DUP2 GT DUP3 DUP3 LT OR PUSH3 0x317 JUMPI DUP8 MSTORE CALLER DUP2 MSTORE DUP7 MLOAD SWAP5 DUP8 DUP7 ADD DUP7 DUP2 LT DUP9 DUP3 GT OR PUSH3 0x303 JUMPI DUP9 MSTORE PUSH1 0x14 DUP7 MSTORE PUSH32 0x53797374656D2041646D696E6973747261746F72000000000000000000000000 SWAP7 PUSH1 0x20 SWAP7 DUP9 DUP9 DUP3 ADD MSTORE DUP8 DUP5 ADD SWAP1 DUP2 MSTORE DUP10 DUP5 ADD SWAP2 DUP7 DUP4 MSTORE PUSH1 0x60 DUP6 ADD SWAP4 TIMESTAMP DUP6 MSTORE CALLER DUP8 MSTORE PUSH1 0x4 DUP11 MSTORE DUP12 DUP8 KECCAK256 SWAP6 MLOAD AND DUP9 DUP7 SLOAD AND OR DUP6 SSTORE DUP7 DUP6 ADD SWAP2 MLOAD DUP1 MLOAD SWAP2 DUP3 GT PUSH3 0x2EF JUMPI DUP3 SLOAD DUP9 DUP2 DUP2 SHR SWAP2 AND DUP1 ISZERO PUSH3 0x2E4 JUMPI JUMPDEST DUP12 DUP3 LT EQ PUSH3 0x2D0 JUMPI PUSH1 0x1F DUP2 GT PUSH3 0x285 JUMPI JUMPDEST POP DUP10 SWAP1 PUSH1 0x1F DUP4 GT PUSH1 0x1 EQ PUSH3 0x219 JUMPI PUSH1 0x3 SWAP6 SWAP5 SWAP4 SWAP3 SWAP2 DUP9 SWAP2 DUP4 PUSH3 0x20D JUMPI JUMPDEST POP POP PUSH1 0x0 NOT DUP3 DUP8 SHL SHR NOT AND SWAP1 DUP9 SHL OR SWAP1 SSTORE JUMPDEST PUSH1 0x2 DUP5 ADD SWAP1 MLOAD ISZERO ISZERO PUSH1 0xFF DUP1 NOT DUP4 SLOAD AND SWAP2 AND OR SWAP1 SSTORE MLOAD SWAP2 ADD SSTORE PUSH1 0x7 SLOAD SWAP2 PUSH9 0x10000000000000000 DUP4 LT ISZERO PUSH3 0x1F9 JUMPI DUP3 ADD DUP1 PUSH1 0x7 SSTORE DUP3 LT ISZERO PUSH3 0x1E5 JUMPI DUP1 PUSH1 0x7 DUP6 SWAP3 MSTORE KECCAK256 ADD SWAP1 CALLER SWAP1 DUP3 SLOAD AND OR SWAP1 SSTORE DUP3 MLOAD SWAP2 DUP4 DUP4 MSTORE PUSH1 0x14 DUP5 DUP5 ADD MSTORE PUSH1 0x60 DUP4 ADD MSTORE TIMESTAMP SWAP1 DUP3 ADD MSTORE PUSH32 0x54E81C259E04BCEA04E7CB5C69E158FAC7DDECE0B1A19EEFA2954CD6425C9599 PUSH1 0x80 CALLER SWAP3 LOG2 MLOAD PUSH2 0x17EC SWAP1 DUP2 PUSH3 0x347 DUP3 CODECOPY RETURN JUMPDEST PUSH4 0x4E487B71 PUSH1 0xE0 SHL DUP2 MSTORE PUSH1 0x32 PUSH1 0x4 MSTORE PUSH1 0x24 SWAP1 REVERT JUMPDEST PUSH4 0x4E487B71 PUSH1 0xE0 SHL DUP3 MSTORE PUSH1 0x41 PUSH1 0x4 MSTORE PUSH1 0x24 DUP3 REVERT JUMPDEST ADD MLOAD SWAP1 POP CODESIZE DUP1 PUSH3 0x13C JUMP JUMPDEST SWAP5 SWAP4 SWAP3 SWAP2 DUP9 SWAP2 PUSH1 0x1F NOT DUP3 AND SWAP1 DUP5 DUP11 MSTORE DUP13 DUP11 KECCAK256 SWAP2 DUP14 DUP12 SWAP1 JUMPDEST DUP3 DUP3 LT PUSH3 0x26D JUMPI POP POP SWAP8 DUP4 PUSH1 0x3 SWAP10 LT PUSH3 0x254 JUMPI JUMPDEST POP POP POP DUP2 SHL ADD SWAP1 SSTORE PUSH3 0x14E JUMP JUMPDEST ADD MLOAD PUSH1 0x0 NOT DUP4 DUP10 SHL PUSH1 0xF8 AND SHR NOT AND SWAP1 SSTORE CODESIZE DUP1 DUP1 PUSH3 0x246 JUMP JUMPDEST DUP4 DUP12 ADD MLOAD DUP6 SSTORE DUP14 SWAP7 SWAP1 SWAP5 ADD SWAP4 SWAP3 DUP4 ADD SWAP3 ADD DUP15 PUSH3 0x230 JUMP JUMPDEST DUP4 DUP9 MSTORE DUP11 DUP9 KECCAK256 PUSH1 0x1F DUP5 ADD PUSH1 0x5 SHR DUP2 ADD SWAP2 DUP13 DUP6 LT PUSH3 0x2C5 JUMPI JUMPDEST PUSH1 0x1F ADD PUSH1 0x5 SHR ADD SWAP1 DUP10 SWAP1 JUMPDEST DUP3 DUP2 LT PUSH3 0x2B9 JUMPI POP POP PUSH3 0x11D JUMP JUMPDEST DUP10 DUP2 SSTORE ADD DUP10 SWAP1 PUSH3 0x2A9 JUMP JUMPDEST SWAP1 SWAP2 POP DUP2 SWAP1 PUSH3 0x29E JUMP JUMPDEST PUSH4 0x4E487B71 PUSH1 0xE0 SHL DUP9 MSTORE PUSH1 0x22 PUSH1 0x4 MSTORE PUSH1 0x24 DUP9 REVERT JUMPDEST SWAP1 PUSH1 0x7F AND SWAP1 PUSH3 0x10A JUMP JUMPDEST PUSH4 0x4E487B71 PUSH1 0xE0 SHL DUP8 MSTORE PUSH1 0x41 PUSH1 0x4 MSTORE PUSH1 0x24 DUP8 REVERT JUMPDEST PUSH4 0x4E487B71 PUSH1 0xE0 SHL DUP5 MSTORE PUSH1 0x41 PUSH1 0x4 MSTORE PUSH1 0x24 DUP5 REVERT JUMPDEST PUSH4 0x4E487B71 PUSH1 0xE0 SHL DUP4 MSTORE PUSH1 0x41 PUSH1 0x4 MSTORE PUSH1 0x24 DUP4 REVERT JUMPDEST PUSH4 0x1E4FBDF7 PUSH1 0xE0 SHL DUP2 MSTORE PUSH1 0x0 PUSH1 0x4 DUP3 ADD MSTORE PUSH1 0x24 SWAP1 REVERT JUMPDEST PUSH1 0x0 DUP1 REVERT INVALID PUSH1 0x80 DUP1 PUSH1 0x40 MSTORE PUSH1 0x4 CALLDATASIZE LT ISZERO PUSH2 0x13 JUMPI PUSH1 0x0 DUP1 REVERT JUMPDEST PUSH1 0x0 CALLDATALOAD PUSH1 0xE0 SHR SWAP1 DUP2 PUSH4 0x70117C4 EQ PUSH2 0x12B7 JUMPI POP DUP1 PUSH4 0x173E5660 EQ PUSH2 0x11DC JUMPI DUP1 PUSH4 0x2551CB87 EQ PUSH2 0xEF7 JUMPI DUP1 PUSH4 0x36677F34 EQ PUSH2 0xE53 JUMPI DUP1 PUSH4 0x3FDEA870 EQ PUSH2 0xD00 JUMPI DUP1 PUSH4 0x4AF1DC7A EQ PUSH2 0xCC6 JUMPI DUP1 PUSH4 0x50952965 EQ PUSH2 0xC17 JUMPI DUP1 PUSH4 0x5AC4BFC0 EQ PUSH2 0xABD JUMPI DUP1 PUSH4 0x608AE435 EQ PUSH2 0xA42 JUMPI DUP1 PUSH4 0x715018A6 EQ PUSH2 0x9E9 JUMPI DUP1 PUSH4 0x7F9F0189 EQ PUSH2 0x49B JUMPI DUP1 PUSH4 0x84B2245E EQ PUSH2 0x464 JUMPI DUP1 PUSH4 0x8A4A2244 EQ PUSH2 0x382 JUMPI DUP1 PUSH4 0x8DA5CB5B EQ PUSH2 0x359 JUMPI DUP1 PUSH4 0x926C643A EQ PUSH2 0x328 JUMPI DUP1 PUSH4 0xB50991B4 EQ PUSH2 0x25A JUMPI DUP1 PUSH4 0xB69DAB68 EQ PUSH2 0x218 JUMPI DUP1 PUSH4 0xBAB17CE9 EQ PUSH2 0x1FA JUMPI DUP1 PUSH4 0xCC8BFBF5 EQ PUSH2 0x1C8 JUMPI DUP1 PUSH4 0xF2FDE38B EQ PUSH2 0x13F JUMPI PUSH4 0xFB2C5577 EQ PUSH2 0x106 JUMPI PUSH1 0x0 DUP1 REVERT JUMPDEST CALLVALUE PUSH2 0x13A JUMPI PUSH1 0x20 CALLDATASIZE PUSH1 0x3 NOT ADD SLT PUSH2 0x13A JUMPI PUSH1 0x4 CALLDATALOAD PUSH1 0x0 MSTORE PUSH1 0x2 PUSH1 0x20 MSTORE PUSH1 0x20 PUSH1 0xFF PUSH1 0x5 PUSH1 0x40 PUSH1 0x0 KECCAK256 ADD SLOAD AND ISZERO ISZERO PUSH1 0x40 MLOAD SWAP1 DUP2 MSTORE RETURN JUMPDEST PUSH1 0x0 DUP1 REVERT JUMPDEST CALLVALUE PUSH2 0x13A JUMPI PUSH1 0x20 CALLDATASIZE PUSH1 0x3 NOT ADD SLT PUSH2 0x13A JUMPI PUSH2 0x158 PUSH2 0x12ED JUMP JUMPDEST PUSH2 0x160 PUSH2 0x153E JUMP JUMPDEST PUSH1 0x1 PUSH1 0x1 PUSH1 0xA0 SHL SUB SWAP1 DUP2 AND SWAP1 DUP2 ISZERO PUSH2 0x1AF JUMPI PUSH1 0x0 SLOAD DUP3 PUSH1 0x1 PUSH1 0x1 PUSH1 0x60 SHL SUB PUSH1 0xA0 SHL DUP3 AND OR PUSH1 0x0 SSTORE AND PUSH32 0x8BE0079C531659141344CD1FD0A4F28419497F9722A3DAAFE3B4186F6B6457E0 PUSH1 0x0 DUP1 LOG3 STOP JUMPDEST PUSH1 0x40 MLOAD PUSH4 0x1E4FBDF7 PUSH1 0xE0 SHL DUP2 MSTORE PUSH1 0x0 PUSH1 0x4 DUP3 ADD MSTORE PUSH1 0x24 SWAP1 REVERT JUMPDEST CALLVALUE PUSH2 0x13A JUMPI PUSH1 0x20 CALLDATASIZE PUSH1 0x3 NOT ADD SLT PUSH2 0x13A JUMPI PUSH1 0x4 CALLDATALOAD PUSH1 0x0 MSTORE PUSH1 0x2 PUSH1 0x20 MSTORE PUSH1 0x20 PUSH1 0xFF PUSH1 0x5 PUSH1 0x40 PUSH1 0x0 KECCAK256 ADD SLOAD AND PUSH1 0x40 MLOAD SWAP1 DUP2 MSTORE RETURN JUMPDEST CALLVALUE PUSH2 0x13A JUMPI PUSH1 0x0 CALLDATASIZE PUSH1 0x3 NOT ADD SLT PUSH2 0x13A JUMPI PUSH1 0x20 PUSH1 0x6 SLOAD PUSH1 0x40 MLOAD SWAP1 DUP2 MSTORE RETURN JUMPDEST CALLVALUE PUSH2 0x13A JUMPI PUSH1 0x20 CALLDATASIZE PUSH1 0x3 NOT ADD SLT PUSH2 0x13A JUMPI PUSH1 0x4 CALLDATALOAD PUSH1 0x7 SLOAD DUP2 LT ISZERO PUSH2 0x13A JUMPI PUSH2 0x241 PUSH1 0x20 SWAP2 PUSH2 0x14BA JUMP JUMPDEST SWAP1 SLOAD PUSH1 0x40 MLOAD PUSH1 0x3 SWAP3 SWAP1 SWAP3 SHL SHR PUSH1 0x1 PUSH1 0x1 PUSH1 0xA0 SHL SUB AND DUP2 MSTORE RETURN JUMPDEST CALLVALUE PUSH2 0x13A JUMPI PUSH1 0x20 CALLDATASIZE PUSH1 0x3 NOT ADD SLT PUSH2 0x13A JUMPI PUSH1 0x4 CALLDATALOAD DUP1 PUSH1 0x0 MSTORE PUSH1 0x2 PUSH1 0x20 MSTORE PUSH2 0x28A PUSH1 0x4 PUSH1 0x40 PUSH1 0x0 KECCAK256 ADD SLOAD ISZERO ISZERO PUSH2 0x15C4 JUMP JUMPDEST PUSH1 0x0 MSTORE PUSH1 0x2 PUSH1 0x20 MSTORE PUSH1 0x40 PUSH1 0x0 KECCAK256 PUSH1 0x5 DUP2 ADD SLOAD SWAP1 PUSH1 0xFF DUP3 PUSH1 0x8 SHR AND SWAP1 DUP2 PUSH2 0x312 JUMPI JUMPDEST DUP1 SLOAD SWAP2 PUSH1 0xFF PUSH1 0x1 DUP4 ADD SLOAD SWAP5 PUSH1 0x1 DUP1 PUSH1 0xA0 SHL SUB PUSH1 0x3 DUP6 ADD SLOAD AND SWAP4 PUSH2 0x2F6 PUSH2 0x2D8 PUSH1 0x2 PUSH1 0x4 DUP5 ADD SLOAD SWAP4 ADD PUSH2 0x1414 JUMP JUMPDEST PUSH1 0x40 MLOAD SWAP9 DUP10 SWAP9 DUP10 MSTORE PUSH1 0x20 DUP10 ADD MSTORE PUSH1 0xE0 PUSH1 0x40 DUP10 ADD MSTORE PUSH1 0xE0 DUP9 ADD SWAP1 PUSH2 0x139A JUMP JUMPDEST SWAP5 PUSH1 0x60 DUP8 ADD MSTORE PUSH1 0x80 DUP7 ADD MSTORE AND PUSH1 0xA0 DUP5 ADD MSTORE ISZERO ISZERO PUSH1 0xC0 DUP4 ADD MSTORE SUB SWAP1 RETURN JUMPDEST PUSH1 0x5 PUSH1 0x20 MSTORE PUSH1 0x40 PUSH1 0x0 KECCAK256 SLOAD PUSH1 0xFF AND ISZERO SWAP2 POP PUSH2 0x2AB JUMP JUMPDEST CALLVALUE PUSH2 0x13A JUMPI PUSH1 0x20 CALLDATASIZE PUSH1 0x3 NOT ADD SLT PUSH2 0x13A JUMPI PUSH1 0x4 CALLDATALOAD PUSH1 0x0 MSTORE PUSH1 0x5 PUSH1 0x20 MSTORE PUSH1 0x20 PUSH1 0xFF PUSH1 0x40 PUSH1 0x0 KECCAK256 SLOAD AND PUSH1 0x40 MLOAD SWAP1 ISZERO ISZERO DUP2 MSTORE RETURN JUMPDEST CALLVALUE PUSH2 0x13A JUMPI PUSH1 0x0 CALLDATASIZE PUSH1 0x3 NOT ADD SLT PUSH2 0x13A JUMPI PUSH1 0x0 SLOAD PUSH1 0x40 MLOAD PUSH1 0x1 PUSH1 0x1 PUSH1 0xA0 SHL SUB SWAP1 SWAP2 AND DUP2 MSTORE PUSH1 0x20 SWAP1 RETURN JUMPDEST CALLVALUE PUSH2 0x13A JUMPI PUSH1 0x40 CALLDATASIZE PUSH1 0x3 NOT ADD SLT PUSH2 0x13A JUMPI PUSH1 0x4 CALLDATALOAD PUSH1 0x24 CALLDATALOAD PUSH8 0xFFFFFFFFFFFFFFFF DUP2 GT PUSH2 0x13A JUMPI PUSH2 0x3B6 SWAP1 CALLDATASIZE SWAP1 PUSH1 0x4 ADD PUSH2 0x137C JUMP JUMPDEST SWAP1 CALLER PUSH1 0x0 MSTORE PUSH1 0x4 PUSH1 0x20 MSTORE PUSH2 0x3D4 PUSH1 0xFF PUSH1 0x2 PUSH1 0x40 PUSH1 0x0 KECCAK256 ADD SLOAD AND PUSH2 0x156A JUMP JUMPDEST DUP1 PUSH1 0x0 MSTORE PUSH1 0x2 PUSH1 0x20 MSTORE PUSH2 0x3F0 PUSH1 0x4 PUSH1 0x40 PUSH1 0x0 KECCAK256 ADD SLOAD ISZERO ISZERO PUSH2 0x15C4 JUMP JUMPDEST DUP1 PUSH1 0x0 MSTORE PUSH1 0x5 PUSH1 0x20 MSTORE PUSH1 0x40 PUSH1 0x0 KECCAK256 PUSH1 0x1 PUSH1 0xFF NOT DUP3 SLOAD AND OR SWAP1 SSTORE PUSH1 0x2 PUSH1 0x20 MSTORE PUSH1 0x5 PUSH1 0x40 PUSH1 0x0 KECCAK256 ADD PUSH2 0xFF00 NOT DUP2 SLOAD AND SWAP1 SSTORE PUSH32 0x37CDC8C47AACEF4D4B12B5824D1654B4650107C2AA06A6D76A71B580864E925B PUSH2 0x455 PUSH1 0x40 MLOAD SWAP4 PUSH1 0x40 DUP6 MSTORE PUSH1 0x40 DUP6 ADD SWAP1 PUSH2 0x139A JUMP JUMPDEST SWAP3 TIMESTAMP PUSH1 0x20 DUP3 ADD MSTORE DUP1 CALLER SWAP5 SUB SWAP1 LOG3 STOP JUMPDEST CALLVALUE PUSH2 0x13A JUMPI PUSH1 0x20 CALLDATASIZE PUSH1 0x3 NOT ADD SLT PUSH2 0x13A JUMPI PUSH1 0x4 CALLDATALOAD PUSH1 0x6 SLOAD DUP2 LT ISZERO PUSH2 0x13A JUMPI PUSH2 0x48D PUSH1 0x20 SWAP2 PUSH2 0x1507 JUMP JUMPDEST SWAP1 SLOAD PUSH1 0x40 MLOAD SWAP2 PUSH1 0x3 SHL SHR DUP2 MSTORE RETURN JUMPDEST CALLVALUE PUSH2 0x13A JUMPI PUSH1 0x80 CALLDATASIZE PUSH1 0x3 NOT ADD SLT PUSH2 0x13A JUMPI PUSH1 0x24 CALLDATALOAD PUSH1 0x44 CALLDATALOAD PUSH8 0xFFFFFFFFFFFFFFFF DUP2 GT PUSH2 0x13A JUMPI PUSH2 0x4CF SWAP1 CALLDATASIZE SWAP1 PUSH1 0x4 ADD PUSH2 0x137C JUMP JUMPDEST SWAP1 PUSH1 0x64 CALLDATALOAD PUSH8 0xFFFFFFFFFFFFFFFF DUP2 GT PUSH2 0x13A JUMPI PUSH2 0x4F0 SWAP1 CALLDATASIZE SWAP1 PUSH1 0x4 ADD PUSH2 0x137C JUMP JUMPDEST SWAP1 PUSH1 0x2 PUSH1 0x1 SLOAD EQ PUSH2 0x9D7 JUMPI PUSH1 0x2 PUSH1 0x1 SSTORE PUSH1 0x4 CALLDATALOAD ISZERO PUSH2 0x99B JUMPI DUP1 ISZERO PUSH2 0x95E JUMPI CALLER PUSH1 0x0 MSTORE PUSH1 0x3 PUSH1 0x20 MSTORE PUSH1 0x40 PUSH1 0x0 KECCAK256 SLOAD PUSH2 0x909 JUMPI PUSH1 0x40 MLOAD SWAP3 PUSH1 0x20 DUP5 ADD SWAP2 PUSH1 0x4 CALLDATALOAD DUP4 MSTORE DUP1 PUSH1 0x40 DUP7 ADD MSTORE CALLER PUSH1 0x60 SHL PUSH1 0x60 DUP7 ADD MSTORE TIMESTAMP PUSH1 0x74 DUP7 ADD MSTORE PREVRANDAO PUSH1 0x94 DUP7 ADD MSTORE PUSH1 0x94 DUP6 MSTORE PUSH1 0xC0 DUP6 ADD SWAP3 DUP6 DUP5 LT PUSH8 0xFFFFFFFFFFFFFFFF DUP6 GT OR PUSH2 0x772 JUMPI DUP4 PUSH1 0x40 MSTORE DUP6 MLOAD SWAP1 KECCAK256 SWAP4 PUSH2 0x1C0 DUP7 ADD DUP5 DUP2 LT PUSH8 0xFFFFFFFFFFFFFFFF DUP3 GT OR PUSH2 0x772 JUMPI PUSH1 0x40 MSTORE PUSH1 0x4 CALLDATALOAD DUP5 MSTORE PUSH1 0xE0 DUP7 ADD SWAP2 DUP3 MSTORE PUSH2 0x100 DUP7 ADD SWAP3 DUP4 MSTORE CALLER PUSH2 0x120 DUP8 ADD MSTORE TIMESTAMP PUSH2 0x140 DUP8 ADD MSTORE PUSH1 0x0 PUSH2 0x160 DUP8 ADD MSTORE PUSH1 0x1 PUSH2 0x180 DUP8 ADD MSTORE PUSH2 0x1A0 DUP7 ADD MSTORE DUP4 PUSH1 0x0 MSTORE PUSH1 0x2 PUSH1 0x20 MSTORE PUSH1 0x40 PUSH1 0x0 KECCAK256 SWAP3 MLOAD DUP4 SSTORE MLOAD PUSH1 0x1 DUP4 ADD SSTORE MLOAD DUP1 MLOAD SWAP1 PUSH8 0xFFFFFFFFFFFFFFFF DUP3 GT PUSH2 0x772 JUMPI PUSH2 0x5FA PUSH1 0x2 DUP5 ADD SLOAD PUSH2 0x13DA JUMP JUMPDEST PUSH1 0x1F DUP2 GT PUSH2 0x8C2 JUMPI JUMPDEST POP PUSH1 0x20 SWAP1 PUSH1 0x1F DUP4 GT PUSH1 0x1 EQ PUSH2 0x84C JUMPI SWAP2 DUP1 PUSH2 0x1A0 SWAP5 SWAP3 PUSH1 0x6 SWAP5 PUSH1 0x0 SWAP3 PUSH2 0x841 JUMPI JUMPDEST POP POP DUP2 PUSH1 0x1 SHL SWAP2 PUSH1 0x0 NOT SWAP1 PUSH1 0x3 SHL SHR NOT AND OR PUSH1 0x2 DUP3 ADD SSTORE JUMPDEST PUSH1 0x3 DUP2 ADD PUSH1 0x1 DUP1 PUSH1 0xA0 SHL SUB PUSH2 0x120 DUP8 ADD MLOAD AND PUSH1 0x1 PUSH1 0x1 PUSH1 0x60 SHL SUB PUSH1 0xA0 SHL DUP3 SLOAD AND OR SWAP1 SSTORE PUSH2 0x140 DUP6 ADD MLOAD PUSH1 0x4 DUP3 ADD SSTORE PUSH1 0x5 DUP2 ADD PUSH1 0xFF PUSH2 0x160 DUP8 ADD MLOAD AND DUP2 SLOAD SWAP1 PUSH2 0xFF00 PUSH2 0x180 DUP10 ADD MLOAD ISZERO ISZERO PUSH1 0x8 SHL AND SWAP2 PUSH2 0xFFFF NOT AND OR OR SWAP1 SSTORE ADD SWAP3 ADD MLOAD SWAP2 DUP3 MLOAD PUSH8 0xFFFFFFFFFFFFFFFF DUP2 GT PUSH2 0x772 JUMPI PUSH2 0x6B3 DUP3 SLOAD PUSH2 0x13DA JUMP JUMPDEST PUSH1 0x1F DUP2 GT PUSH2 0x7F9 JUMPI JUMPDEST POP PUSH1 0x20 PUSH1 0x1F DUP3 GT PUSH1 0x1 EQ PUSH2 0x793 JUMPI DUP2 SWAP3 SWAP4 SWAP5 PUSH1 0x0 SWAP3 PUSH2 0x788 JUMPI JUMPDEST POP POP DUP2 PUSH1 0x1 SHL SWAP2 PUSH1 0x0 NOT SWAP1 PUSH1 0x3 SHL SHR NOT AND OR SWAP1 SSTORE JUMPDEST CALLER PUSH1 0x0 MSTORE PUSH1 0x3 PUSH1 0x20 MSTORE DUP1 PUSH1 0x40 PUSH1 0x0 KECCAK256 SSTORE PUSH1 0x6 SLOAD SWAP1 PUSH1 0x1 PUSH1 0x40 SHL DUP3 LT ISZERO PUSH2 0x772 JUMPI PUSH2 0x71D DUP3 PUSH1 0x1 PUSH1 0x20 SWAP5 ADD PUSH1 0x6 SSTORE PUSH2 0x1507 JUMP JUMPDEST DUP2 SLOAD SWAP1 PUSH1 0x3 SHL SWAP1 DUP4 DUP3 SHL SWAP2 PUSH1 0x0 NOT SWAP1 SHL NOT AND OR SWAP1 SSTORE PUSH1 0x40 MLOAD PUSH1 0x4 CALLDATALOAD DUP2 MSTORE TIMESTAMP DUP4 DUP3 ADD MSTORE DUP2 PUSH32 0x12B80FFB2A05F75DC3234F6D754502FC4B2F889B30622872E21F26116BD9F490 PUSH1 0x40 CALLER SWAP4 LOG3 PUSH1 0x1 DUP1 SSTORE PUSH1 0x40 MLOAD SWAP1 DUP2 MSTORE RETURN JUMPDEST PUSH4 0x4E487B71 PUSH1 0xE0 SHL PUSH1 0x0 MSTORE PUSH1 0x41 PUSH1 0x4 MSTORE PUSH1 0x24 PUSH1 0x0 REVERT JUMPDEST ADD MLOAD SWAP1 POP DUP5 DUP1 PUSH2 0x6D6 JUMP JUMPDEST PUSH1 0x1F NOT DUP3 AND SWAP1 DUP4 PUSH1 0x0 MSTORE PUSH1 0x20 PUSH1 0x0 KECCAK256 SWAP2 PUSH1 0x0 JUMPDEST DUP2 DUP2 LT PUSH2 0x7E1 JUMPI POP SWAP6 DUP4 PUSH1 0x1 SWAP6 SWAP7 SWAP8 LT PUSH2 0x7C8 JUMPI JUMPDEST POP POP POP DUP2 SHL ADD SWAP1 SSTORE PUSH2 0x6EB JUMP JUMPDEST ADD MLOAD PUSH1 0x0 NOT PUSH1 0xF8 DUP5 PUSH1 0x3 SHL AND SHR NOT AND SWAP1 SSTORE DUP5 DUP1 DUP1 PUSH2 0x7BB JUMP JUMPDEST SWAP2 SWAP3 PUSH1 0x20 PUSH1 0x1 DUP2 SWAP3 DUP7 DUP12 ADD MLOAD DUP2 SSTORE ADD SWAP5 ADD SWAP3 ADD PUSH2 0x7A6 JUMP JUMPDEST DUP3 PUSH1 0x0 MSTORE PUSH1 0x20 PUSH1 0x0 KECCAK256 PUSH1 0x1F DUP4 ADD PUSH1 0x5 SHR DUP2 ADD SWAP2 PUSH1 0x20 DUP5 LT PUSH2 0x837 JUMPI JUMPDEST PUSH1 0x1F ADD PUSH1 0x5 SHR ADD SWAP1 JUMPDEST DUP2 DUP2 LT PUSH2 0x82B JUMPI POP PUSH2 0x6BC JUMP JUMPDEST PUSH1 0x0 DUP2 SSTORE PUSH1 0x1 ADD PUSH2 0x81E JUMP JUMPDEST SWAP1 SWAP2 POP DUP2 SWAP1 PUSH2 0x815 JUMP JUMPDEST ADD MLOAD SWAP1 POP DUP8 DUP1 PUSH2 0x624 JUMP JUMPDEST SWAP1 PUSH1 0x2 DUP5 ADD PUSH1 0x0 MSTORE PUSH1 0x20 PUSH1 0x0 KECCAK256 SWAP2 PUSH1 0x0 JUMPDEST PUSH1 0x1F NOT DUP6 AND DUP2 LT PUSH2 0x8AA JUMPI POP SWAP3 PUSH2 0x1A0 SWAP5 SWAP3 PUSH1 0x1 SWAP3 PUSH1 0x6 SWAP6 DUP4 PUSH1 0x1F NOT DUP2 AND LT PUSH2 0x891 JUMPI JUMPDEST POP POP POP DUP2 SHL ADD PUSH1 0x2 DUP3 ADD SSTORE PUSH2 0x63C JUMP JUMPDEST ADD MLOAD PUSH1 0x0 NOT PUSH1 0xF8 DUP5 PUSH1 0x3 SHL AND SHR NOT AND SWAP1 SSTORE DUP8 DUP1 DUP1 PUSH2 0x881 JUMP JUMPDEST SWAP2 SWAP3 PUSH1 0x20 PUSH1 0x1 DUP2 SWAP3 DUP7 DUP6 ADD MLOAD DUP2 SSTORE ADD SWAP5 ADD SWAP3 ADD PUSH2 0x85D JUMP JUMPDEST PUSH1 0x2 DUP5 ADD PUSH1 0x0 MSTORE PUSH1 0x20 PUSH1 0x0 KECCAK256 PUSH1 0x1F DUP5 ADD PUSH1 0x5 SHR DUP2 ADD PUSH1 0x20 DUP6 LT PUSH2 0x902 JUMPI JUMPDEST PUSH1 0x1F DUP4 ADD PUSH1 0x5 SHR DUP3 ADD DUP2 LT PUSH2 0x8F6 JUMPI POP POP PUSH2 0x603 JUMP JUMPDEST PUSH1 0x0 DUP2 SSTORE PUSH1 0x1 ADD PUSH2 0x8E0 JUMP JUMPDEST POP DUP1 PUSH2 0x8E0 JUMP JUMPDEST PUSH1 0x40 MLOAD PUSH3 0x461BCD PUSH1 0xE5 SHL DUP2 MSTORE PUSH1 0x20 PUSH1 0x4 DUP3 ADD MSTORE PUSH1 0x27 PUSH1 0x24 DUP3 ADD MSTORE PUSH32 0x50726F66696C6520616C72656164792065786973747320666F72207468697320 PUSH1 0x44 DUP3 ADD MSTORE PUSH7 0x61646472657373 PUSH1 0xC8 SHL PUSH1 0x64 DUP3 ADD MSTORE PUSH1 0x84 SWAP1 REVERT JUMPDEST PUSH1 0x40 MLOAD PUSH3 0x461BCD PUSH1 0xE5 SHL DUP2 MSTORE PUSH1 0x20 PUSH1 0x4 DUP3 ADD MSTORE PUSH1 0x15 PUSH1 0x24 DUP3 ADD MSTORE PUSH21 0x92DCECC2D8D2C840C8DEC6EADACADCE840D0C2E6D PUSH1 0x5B SHL PUSH1 0x44 DUP3 ADD MSTORE PUSH1 0x64 SWAP1 REVERT JUMPDEST PUSH1 0x40 MLOAD PUSH3 0x461BCD PUSH1 0xE5 SHL DUP2 MSTORE PUSH1 0x20 PUSH1 0x4 DUP3 ADD MSTORE PUSH1 0x14 PUSH1 0x24 DUP3 ADD MSTORE PUSH20 0x92DCECC2D8D2C840E0E4DECCD2D8CA40D0C2E6D PUSH1 0x63 SHL PUSH1 0x44 DUP3 ADD MSTORE PUSH1 0x64 SWAP1 REVERT JUMPDEST PUSH1 0x40 MLOAD PUSH4 0x3EE5AEB5 PUSH1 0xE0 SHL DUP2 MSTORE PUSH1 0x4 SWAP1 REVERT JUMPDEST CALLVALUE PUSH2 0x13A JUMPI PUSH1 0x0 CALLDATASIZE PUSH1 0x3 NOT ADD SLT PUSH2 0x13A JUMPI PUSH2 0xA02 PUSH2 0x153E JUMP JUMPDEST PUSH1 0x0 DUP1 SLOAD PUSH1 0x1 PUSH1 0x1 PUSH1 0xA0 SHL SUB NOT DUP2 AND DUP3 SSTORE PUSH1 0x1 PUSH1 0x1 PUSH1 0xA0 SHL SUB AND PUSH32 0x8BE0079C531659141344CD1FD0A4F28419497F9722A3DAAFE3B4186F6B6457E0 DUP3 DUP1 LOG3 STOP JUMPDEST CALLVALUE PUSH2 0x13A JUMPI PUSH1 0x20 CALLDATASIZE PUSH1 0x3 NOT ADD SLT PUSH2 0x13A JUMPI PUSH1 0x1 PUSH1 0x1 PUSH1 0xA0 SHL SUB DUP1 PUSH2 0xA64 PUSH2 0x12ED JUMP JUMPDEST AND PUSH1 0x0 MSTORE PUSH1 0x4 PUSH1 0x20 MSTORE PUSH1 0x40 PUSH1 0x0 KECCAK256 SWAP1 DUP2 SLOAD AND PUSH2 0xA82 PUSH1 0x1 DUP4 ADD PUSH2 0x1414 JUMP JUMPDEST SWAP2 PUSH1 0x3 PUSH1 0xFF PUSH1 0x2 DUP4 ADD SLOAD AND SWAP2 ADD SLOAD PUSH2 0xAAC PUSH1 0x40 MLOAD SWAP5 DUP6 SWAP5 DUP6 MSTORE PUSH1 0x80 PUSH1 0x20 DUP7 ADD MSTORE PUSH1 0x80 DUP6 ADD SWAP1 PUSH2 0x139A JUMP JUMPDEST SWAP2 ISZERO ISZERO PUSH1 0x40 DUP5 ADD MSTORE PUSH1 0x60 DUP4 ADD MSTORE SUB SWAP1 RETURN JUMPDEST CALLVALUE PUSH2 0x13A JUMPI PUSH1 0x40 CALLDATASIZE PUSH1 0x3 NOT ADD SLT PUSH2 0x13A JUMPI PUSH8 0xFFFFFFFFFFFFFFFF PUSH1 0x4 CALLDATALOAD DUP2 DUP2 GT PUSH2 0x13A JUMPI CALLDATASIZE PUSH1 0x23 DUP3 ADD SLT ISZERO PUSH2 0x13A JUMPI DUP1 PUSH1 0x4 ADD CALLDATALOAD SWAP2 DUP3 GT PUSH2 0x13A JUMPI PUSH1 0x24 DUP1 DUP3 ADD SWAP3 PUSH1 0x5 SWAP3 DUP3 CALLDATASIZE SWAP2 DUP4 DUP7 SHL ADD ADD GT PUSH2 0x13A JUMPI PUSH2 0xB16 PUSH2 0x1303 JUMP JUMPDEST SWAP1 CALLER PUSH1 0x0 MSTORE PUSH1 0x20 SWAP1 PUSH1 0x4 DUP3 MSTORE PUSH1 0x2 SWAP1 PUSH2 0xB38 PUSH1 0xFF DUP4 PUSH1 0x40 PUSH1 0x0 KECCAK256 ADD SLOAD AND PUSH2 0x156A JUMP JUMPDEST PUSH1 0x1 SWAP7 PUSH1 0xFF DUP6 AND DUP9 DUP2 LT ISZERO DUP1 PUSH2 0xC0D JUMPI JUMPDEST PUSH2 0xB52 SWAP1 PUSH2 0x1609 JUMP JUMPDEST PUSH1 0x0 JUMPDEST DUP4 DUP2 LT PUSH2 0xB5E JUMPI STOP JUMPDEST PUSH2 0xB69 DUP2 DUP6 DUP6 PUSH2 0x17A6 JUMP JUMPDEST CALLDATALOAD PUSH1 0x0 MSTORE DUP5 DUP7 MSTORE PUSH1 0x4 PUSH1 0x40 PUSH1 0x0 KECCAK256 ADD SLOAD PUSH2 0xBA3 JUMPI JUMPDEST PUSH1 0x0 NOT DUP2 EQ PUSH2 0xB8E JUMPI DUP10 ADD PUSH2 0xB55 JUMP JUMPDEST DUP8 PUSH4 0x4E487B71 PUSH1 0xE0 SHL PUSH1 0x0 MSTORE PUSH1 0x11 PUSH1 0x4 MSTORE PUSH1 0x0 REVERT JUMPDEST PUSH2 0xBAE DUP2 DUP6 DUP6 PUSH2 0x17A6 JUMP JUMPDEST CALLDATALOAD PUSH1 0x0 MSTORE DUP5 DUP7 MSTORE DUP9 PUSH1 0x40 PUSH1 0x0 KECCAK256 ADD DUP3 PUSH1 0xFF NOT DUP3 SLOAD AND OR SWAP1 SSTORE PUSH2 0xBD1 DUP2 DUP6 DUP6 PUSH2 0x17A6 JUMP JUMPDEST PUSH1 0x40 DUP1 MLOAD PUSH1 0xFF DUP11 AND DUP2 MSTORE TIMESTAMP PUSH1 0x20 DUP3 ADD MSTORE CALLER SWAP3 CALLDATALOAD SWAP2 PUSH32 0xA14AAB4DE4B6C7DA4DECDD5A02C67D162AB06E051BADEC5AB309376B413F4EFB SWAP2 LOG3 PUSH2 0xB7E JUMP JUMPDEST POP DUP4 DUP2 GT ISZERO PUSH2 0xB49 JUMP JUMPDEST CALLVALUE PUSH2 0x13A JUMPI PUSH1 0x20 CALLDATASIZE PUSH1 0x3 NOT ADD SLT PUSH2 0x13A JUMPI PUSH1 0x4 CALLDATALOAD PUSH1 0x0 MSTORE PUSH1 0x2 PUSH1 0x20 MSTORE PUSH1 0x40 PUSH1 0x0 KECCAK256 DUP1 SLOAD PUSH2 0xCC2 PUSH1 0x1 DUP4 ADD SLOAD SWAP3 PUSH2 0xC4F PUSH1 0x2 DUP3 ADD PUSH2 0x1414 JUMP JUMPDEST PUSH1 0xFF PUSH1 0x1 DUP1 PUSH1 0xA0 SHL SUB PUSH1 0x3 DUP5 ADD SLOAD AND SWAP3 PUSH1 0x4 DUP2 ADD SLOAD PUSH2 0xC97 PUSH2 0xC78 PUSH1 0x6 PUSH1 0x5 DUP6 ADD SLOAD SWAP5 ADD PUSH2 0x1414 JUMP JUMPDEST SWAP5 PUSH1 0x40 MLOAD SWAP10 DUP11 SWAP10 DUP11 MSTORE PUSH1 0x20 DUP11 ADD MSTORE PUSH2 0x100 DUP1 PUSH1 0x40 DUP12 ADD MSTORE DUP10 ADD SWAP1 PUSH2 0x139A JUMP JUMPDEST SWAP5 PUSH1 0x60 DUP9 ADD MSTORE PUSH1 0x80 DUP8 ADD MSTORE DUP2 DUP2 AND PUSH1 0xA0 DUP8 ADD MSTORE PUSH1 0x8 SHR AND ISZERO ISZERO PUSH1 0xC0 DUP6 ADD MSTORE DUP4 DUP3 SUB PUSH1 0xE0 DUP6 ADD MSTORE PUSH2 0x139A JUMP JUMPDEST SUB SWAP1 RETURN JUMPDEST CALLVALUE PUSH2 0x13A JUMPI PUSH1 0x20 CALLDATASIZE PUSH1 0x3 NOT ADD SLT PUSH2 0x13A JUMPI PUSH1 0x1 PUSH1 0x1 PUSH1 0xA0 SHL SUB PUSH2 0xCE7 PUSH2 0x12ED JUMP JUMPDEST AND PUSH1 0x0 MSTORE PUSH1 0x3 PUSH1 0x20 MSTORE PUSH1 0x20 PUSH1 0x40 PUSH1 0x0 KECCAK256 SLOAD PUSH1 0x40 MLOAD SWAP1 DUP2 MSTORE RETURN JUMPDEST CALLVALUE PUSH2 0x13A JUMPI PUSH1 0x60 CALLDATASIZE PUSH1 0x3 NOT ADD SLT PUSH2 0x13A JUMPI PUSH1 0x4 CALLDATALOAD PUSH1 0x44 CALLDATALOAD PUSH8 0xFFFFFFFFFFFFFFFF DUP2 GT PUSH2 0x13A JUMPI CALLDATASIZE PUSH1 0x23 DUP3 ADD SLT ISZERO PUSH2 0x13A JUMPI PUSH2 0xD45 SWAP1 CALLDATASIZE SWAP1 PUSH1 0x24 DUP2 PUSH1 0x4 ADD CALLDATALOAD SWAP2 ADD PUSH2 0x1335 JUMP JUMPDEST DUP2 PUSH1 0x0 MSTORE PUSH1 0x20 SWAP2 PUSH1 0x2 DUP4 MSTORE PUSH2 0xD63 PUSH1 0x4 PUSH1 0x40 PUSH1 0x0 KECCAK256 ADD SLOAD ISZERO ISZERO PUSH2 0x15C4 JUMP JUMPDEST DUP1 PUSH1 0x0 MSTORE PUSH1 0x2 DUP4 MSTORE PUSH1 0xFF PUSH1 0x5 PUSH1 0x40 PUSH1 0x0 KECCAK256 ADD SLOAD PUSH1 0x8 SHR AND ISZERO PUSH2 0xE16 JUMPI DUP1 PUSH1 0x0 MSTORE PUSH1 0x5 DUP4 MSTORE PUSH1 0xFF PUSH1 0x40 PUSH1 0x0 KECCAK256 SLOAD AND PUSH2 0xDD1 JUMPI SWAP1 PUSH2 0xDC7 SWAP2 PUSH1 0x0 MSTORE PUSH1 0x2 DUP4 MSTORE PUSH1 0x1 DUP1 PUSH1 0xA0 SHL SUB PUSH2 0xDBE DUP2 PUSH1 0x3 PUSH1 0x40 PUSH1 0x0 KECCAK256 ADD SLOAD AND SWAP3 PUSH1 0x24 CALLDATALOAD PUSH2 0x1655 JUMP JUMPDEST SWAP1 SWAP5 SWAP2 SWAP5 PUSH2 0x1721 JUMP JUMPDEST PUSH1 0x40 MLOAD SWAP3 AND EQ DUP2 MSTORE RETURN JUMPDEST PUSH1 0x40 MLOAD PUSH3 0x461BCD PUSH1 0xE5 SHL DUP2 MSTORE PUSH1 0x4 DUP2 ADD DUP5 SWAP1 MSTORE PUSH1 0x18 PUSH1 0x24 DUP3 ADD MSTORE PUSH32 0x50726F66696C6520686173206265656E207265766F6B65640000000000000000 PUSH1 0x44 DUP3 ADD MSTORE PUSH1 0x64 SWAP1 REVERT JUMPDEST PUSH1 0x40 MLOAD PUSH3 0x461BCD PUSH1 0xE5 SHL DUP2 MSTORE PUSH1 0x4 DUP2 ADD DUP5 SWAP1 MSTORE PUSH1 0x15 PUSH1 0x24 DUP3 ADD MSTORE PUSH21 0x50726F66696C65206973206E6F7420616374697665 PUSH1 0x58 SHL PUSH1 0x44 DUP3 ADD MSTORE PUSH1 0x64 SWAP1 REVERT JUMPDEST CALLVALUE PUSH2 0x13A JUMPI PUSH1 0x20 DUP1 PUSH1 0x3 NOT CALLDATASIZE ADD SLT PUSH2 0x13A JUMPI PUSH1 0x4 CALLDATALOAD CALLER PUSH1 0x0 MSTORE PUSH1 0x4 DUP3 MSTORE PUSH2 0xE84 PUSH1 0xFF PUSH1 0x2 PUSH1 0x40 PUSH1 0x0 KECCAK256 ADD SLOAD AND PUSH2 0x156A JUMP JUMPDEST DUP1 PUSH1 0x0 MSTORE PUSH1 0x2 DUP3 MSTORE PUSH2 0xE9F PUSH1 0x4 PUSH1 0x40 PUSH1 0x0 KECCAK256 ADD SLOAD ISZERO ISZERO PUSH2 0x15C4 JUMP JUMPDEST PUSH1 0x40 MLOAD TIMESTAMP DUP2 MSTORE DUP2 PUSH32 0xEC24F061E280CD3BD040DC2005C4FBEB0F7F045A944CB941723CEA128BF3F583 DUP5 CALLER SWAP4 LOG3 PUSH1 0x0 MSTORE PUSH1 0x2 DUP2 MSTORE PUSH2 0xEE2 PUSH1 0x6 PUSH1 0x40 PUSH1 0x0 KECCAK256 ADD PUSH2 0x1414 JUMP JUMPDEST SWAP1 PUSH2 0xCC2 PUSH1 0x40 MLOAD SWAP3 DUP3 DUP5 SWAP4 DUP5 MSTORE DUP4 ADD SWAP1 PUSH2 0x139A JUMP JUMPDEST CALLVALUE PUSH2 0x13A JUMPI PUSH1 0x40 CALLDATASIZE PUSH1 0x3 NOT ADD SLT PUSH2 0x13A JUMPI PUSH2 0xF10 PUSH2 0x12ED JUMP JUMPDEST PUSH8 0xFFFFFFFFFFFFFFFF PUSH1 0x24 CALLDATALOAD DUP2 DUP2 GT PUSH2 0x13A JUMPI PUSH2 0xF31 SWAP1 CALLDATASIZE SWAP1 PUSH1 0x4 ADD PUSH2 0x137C JUMP JUMPDEST SWAP2 PUSH2 0xF3A PUSH2 0x153E JUMP JUMPDEST PUSH1 0x1 PUSH1 0x1 PUSH1 0xA0 SHL SUB SWAP1 DUP2 AND SWAP3 DUP4 ISZERO PUSH2 0x1197 JUMPI DUP4 PUSH1 0x0 MSTORE PUSH1 0x20 PUSH1 0x4 DUP2 MSTORE PUSH1 0xFF PUSH1 0x2 PUSH1 0x40 PUSH1 0x0 KECCAK256 ADD SLOAD AND PUSH2 0x1153 JUMPI PUSH1 0x40 MLOAD PUSH1 0x80 DUP2 ADD DUP2 DUP2 LT DUP7 DUP3 GT OR PUSH2 0x772 JUMPI PUSH1 0x40 MSTORE DUP6 DUP2 MSTORE DUP2 DUP2 ADD SWAP5 DUP4 DUP7 MSTORE PUSH1 0x40 DUP3 ADD PUSH1 0x1 SWAP7 DUP8 DUP3 MSTORE PUSH1 0x60 DUP5 ADD SWAP3 TIMESTAMP DUP5 MSTORE DUP10 PUSH1 0x0 MSTORE PUSH1 0x4 DUP7 MSTORE DUP8 PUSH1 0x40 PUSH1 0x0 KECCAK256 SWAP6 MLOAD AND PUSH1 0x1 PUSH1 0x1 PUSH1 0x60 SHL SUB PUSH1 0xA0 SHL DUP7 SLOAD AND OR DUP6 SSTORE DUP9 DUP6 ADD SWAP2 MLOAD DUP1 MLOAD SWAP2 DUP3 GT PUSH2 0x772 JUMPI PUSH2 0xFD1 DUP4 SLOAD PUSH2 0x13DA JUMP JUMPDEST PUSH1 0x1F DUP2 GT PUSH2 0x110A JUMPI JUMPDEST POP DUP7 SWAP1 PUSH1 0x1F DUP4 GT PUSH1 0x1 EQ PUSH2 0x10A2 JUMPI PUSH1 0x3 SWAP6 SWAP5 SWAP4 SWAP3 SWAP2 PUSH1 0x0 SWAP2 DUP4 PUSH2 0x1097 JUMPI JUMPDEST POP POP PUSH1 0x0 NOT DUP3 DUP8 SHL SHR NOT AND SWAP1 DUP11 SHL OR SWAP1 SSTORE JUMPDEST PUSH1 0x2 DUP5 ADD SWAP1 MLOAD ISZERO ISZERO PUSH1 0xFF DUP1 NOT DUP4 SLOAD AND SWAP2 AND OR SWAP1 SSTORE MLOAD SWAP2 ADD SSTORE PUSH1 0x7 SLOAD SWAP3 PUSH1 0x1 PUSH1 0x40 SHL DUP5 LT ISZERO PUSH2 0x772 JUMPI PUSH2 0x1065 DUP5 PUSH32 0x54E81C259E04BCEA04E7CB5C69E158FAC7DDECE0B1A19EEFA2954CD6425C9599 SWAP7 PUSH2 0x108C SWAP7 ADD PUSH1 0x7 SSTORE PUSH2 0x14BA JUMP JUMPDEST DUP2 SWAP3 SWAP2 SLOAD SWAP1 PUSH1 0x3 SHL SWAP2 DUP9 DUP4 SHL SWAP3 SHL NOT AND OR SWAP1 SSTORE PUSH1 0x40 MLOAD SWAP3 DUP4 SWAP3 PUSH1 0x40 DUP5 MSTORE PUSH1 0x40 DUP5 ADD SWAP1 PUSH2 0x139A JUMP JUMPDEST SWAP1 TIMESTAMP SWAP1 DUP4 ADD MSTORE SUB SWAP1 LOG2 STOP JUMPDEST ADD MLOAD SWAP1 POP DUP13 DUP1 PUSH2 0xFF8 JUMP JUMPDEST SWAP5 SWAP4 SWAP3 SWAP2 DUP11 SWAP2 PUSH1 0x1F NOT DUP3 AND SWAP1 DUP5 PUSH1 0x0 MSTORE DUP10 PUSH1 0x0 KECCAK256 SWAP2 PUSH1 0x0 JUMPDEST DUP12 DUP3 DUP3 LT PUSH2 0x10F4 JUMPI POP POP SWAP8 DUP4 PUSH1 0x3 SWAP10 LT PUSH2 0x10DC JUMPI JUMPDEST POP POP POP DUP2 SHL ADD SWAP1 SSTORE PUSH2 0x100A JUMP JUMPDEST ADD MLOAD PUSH1 0x0 NOT DUP4 DUP10 SHL PUSH1 0xF8 AND SHR NOT AND SWAP1 SSTORE DUP13 DUP1 DUP1 PUSH2 0x10CF JUMP JUMPDEST DUP4 DUP12 ADD MLOAD DUP6 SSTORE DUP16 SWAP7 SWAP1 SWAP5 ADD SWAP4 SWAP3 DUP4 ADD SWAP3 ADD PUSH2 0x10BA JUMP JUMPDEST DUP4 PUSH1 0x0 MSTORE DUP8 PUSH1 0x0 KECCAK256 PUSH1 0x1F DUP5 ADD PUSH1 0x5 SHR DUP2 ADD SWAP2 DUP10 DUP6 LT PUSH2 0x1149 JUMPI JUMPDEST PUSH1 0x1F ADD PUSH1 0x5 SHR ADD SWAP1 DUP12 SWAP1 JUMPDEST DUP3 DUP2 LT PUSH2 0x113D JUMPI POP POP PUSH2 0xFDA JUMP JUMPDEST PUSH1 0x0 DUP2 SSTORE ADD DUP12 SWAP1 PUSH2 0x112F JUMP JUMPDEST SWAP1 SWAP2 POP DUP2 SWAP1 PUSH2 0x1124 JUMP JUMPDEST PUSH1 0x64 SWAP1 PUSH1 0x40 MLOAD SWAP1 PUSH3 0x461BCD PUSH1 0xE5 SHL DUP3 MSTORE PUSH1 0x4 DUP3 ADD MSTORE PUSH1 0x18 PUSH1 0x24 DUP3 ADD MSTORE PUSH32 0x417574686F7269747920616C7265616479206578697374730000000000000000 PUSH1 0x44 DUP3 ADD MSTORE REVERT JUMPDEST PUSH1 0x40 MLOAD PUSH3 0x461BCD PUSH1 0xE5 SHL DUP2 MSTORE PUSH1 0x20 PUSH1 0x4 DUP3 ADD MSTORE PUSH1 0x19 PUSH1 0x24 DUP3 ADD MSTORE PUSH32 0x496E76616C696420617574686F72697479206164647265737300000000000000 PUSH1 0x44 DUP3 ADD MSTORE PUSH1 0x64 SWAP1 REVERT JUMPDEST CALLVALUE PUSH2 0x13A JUMPI PUSH1 0x40 CALLDATASIZE PUSH1 0x3 NOT ADD SLT PUSH2 0x13A JUMPI PUSH1 0x4 CALLDATALOAD PUSH2 0x11F8 PUSH2 0x1303 JUMP JUMPDEST SWAP1 CALLER PUSH1 0x0 MSTORE PUSH1 0x4 PUSH1 0x20 MSTORE PUSH2 0x1216 PUSH1 0xFF PUSH1 0x2 PUSH1 0x40 PUSH1 0x0 KECCAK256 ADD SLOAD AND PUSH2 0x156A JUMP JUMPDEST DUP1 PUSH1 0x0 MSTORE PUSH1 0x2 PUSH1 0x20 MSTORE PUSH2 0x1232 PUSH1 0x4 PUSH1 0x40 PUSH1 0x0 KECCAK256 ADD SLOAD ISZERO ISZERO PUSH2 0x15C4 JUMP JUMPDEST PUSH1 0xFF DUP3 AND PUSH1 0x1 DUP2 LT ISZERO DUP1 PUSH2 0x12AC JUMPI JUMPDEST PUSH2 0x124A SWAP1 PUSH2 0x1609 JUMP JUMPDEST DUP2 PUSH1 0x0 MSTORE PUSH1 0x2 PUSH1 0x20 MSTORE PUSH1 0x5 PUSH1 0x40 PUSH1 0x0 KECCAK256 ADD SWAP1 PUSH1 0xFF NOT DUP3 SLOAD AND OR SWAP1 SSTORE PUSH32 0xA14AAB4DE4B6C7DA4DECDD5A02C67D162AB06E051BADEC5AB309376B413F4EFB PUSH1 0x40 MLOAD DUP1 PUSH2 0x12A7 CALLER SWAP6 TIMESTAMP SWAP1 DUP4 PUSH1 0x20 SWAP1 SWAP4 SWAP3 SWAP2 SWAP4 PUSH1 0xFF PUSH1 0x40 DUP3 ADD SWAP6 AND DUP2 MSTORE ADD MSTORE JUMP JUMPDEST SUB SWAP1 LOG3 STOP JUMPDEST POP PUSH1 0x2 DUP2 GT ISZERO PUSH2 0x1241 JUMP JUMPDEST CALLVALUE PUSH2 0x13A JUMPI PUSH1 0x20 CALLDATASIZE PUSH1 0x3 NOT ADD SLT PUSH2 0x13A JUMPI PUSH1 0x20 SWAP1 PUSH1 0x1 PUSH1 0x1 PUSH1 0xA0 SHL SUB PUSH2 0x12DB PUSH2 0x12ED JUMP JUMPDEST AND PUSH1 0x0 MSTORE PUSH1 0x3 DUP3 MSTORE PUSH1 0x40 PUSH1 0x0 KECCAK256 SLOAD DUP2 MSTORE RETURN JUMPDEST PUSH1 0x4 CALLDATALOAD SWAP1 PUSH1 0x1 PUSH1 0x1 PUSH1 0xA0 SHL SUB DUP3 AND DUP3 SUB PUSH2 0x13A JUMPI JUMP JUMPDEST PUSH1 0x24 CALLDATALOAD SWAP1 PUSH1 0xFF DUP3 AND DUP3 SUB PUSH2 0x13A JUMPI JUMP JUMPDEST SWAP1 PUSH1 0x1F DUP1 NOT SWAP2 ADD AND DUP2 ADD SWAP1 DUP2 LT PUSH8 0xFFFFFFFFFFFFFFFF DUP3 GT OR PUSH2 0x772 JUMPI PUSH1 0x40 MSTORE JUMP JUMPDEST SWAP3 SWAP2 SWAP3 PUSH8 0xFFFFFFFFFFFFFFFF DUP3 GT PUSH2 0x772 JUMPI PUSH1 0x40 MLOAD SWAP2 PUSH2 0x135F PUSH1 0x1F DUP3 ADD PUSH1 0x1F NOT AND PUSH1 0x20 ADD DUP5 PUSH2 0x1313 JUMP JUMPDEST DUP3 SWAP5 DUP2 DUP5 MSTORE DUP2 DUP4 ADD GT PUSH2 0x13A JUMPI DUP3 DUP2 PUSH1 0x20 SWAP4 DUP5 PUSH1 0x0 SWAP7 ADD CALLDATACOPY ADD ADD MSTORE JUMP JUMPDEST SWAP1 DUP1 PUSH1 0x1F DUP4 ADD SLT ISZERO PUSH2 0x13A JUMPI DUP2 PUSH1 0x20 PUSH2 0x1397 SWAP4 CALLDATALOAD SWAP2 ADD PUSH2 0x1335 JUMP JUMPDEST SWAP1 JUMP JUMPDEST SWAP2 SWAP1 DUP3 MLOAD SWAP3 DUP4 DUP3 MSTORE PUSH1 0x0 JUMPDEST DUP5 DUP2 LT PUSH2 0x13C6 JUMPI POP POP DUP3 PUSH1 0x0 PUSH1 0x20 DUP1 SWAP5 SWAP6 DUP5 ADD ADD MSTORE PUSH1 0x1F DUP1 NOT SWAP2 ADD AND ADD ADD SWAP1 JUMP JUMPDEST PUSH1 0x20 DUP2 DUP4 ADD DUP2 ADD MLOAD DUP5 DUP4 ADD DUP3 ADD MSTORE ADD PUSH2 0x13A5 JUMP JUMPDEST SWAP1 PUSH1 0x1 DUP3 DUP2 SHR SWAP3 AND DUP1 ISZERO PUSH2 0x140A JUMPI JUMPDEST PUSH1 0x20 DUP4 LT EQ PUSH2 0x13F4 JUMPI JUMP JUMPDEST PUSH4 0x4E487B71 PUSH1 0xE0 SHL PUSH1 0x0 MSTORE PUSH1 0x22 PUSH1 0x4 MSTORE PUSH1 0x24 PUSH1 0x0 REVERT JUMPDEST SWAP2 PUSH1 0x7F AND SWAP2 PUSH2 0x13E9 JUMP JUMPDEST SWAP1 PUSH1 0x40 MLOAD SWAP2 DUP3 PUSH1 0x0 DUP3 SLOAD SWAP3 PUSH2 0x1428 DUP5 PUSH2 0x13DA JUMP JUMPDEST SWAP1 DUP2 DUP5 MSTORE PUSH1 0x1 SWAP5 DUP6 DUP2 AND SWAP1 DUP2 PUSH1 0x0 EQ PUSH2 0x1497 JUMPI POP PUSH1 0x1 EQ PUSH2 0x1454 JUMPI JUMPDEST POP POP PUSH2 0x1452 SWAP3 POP SUB DUP4 PUSH2 0x1313 JUMP JUMPDEST JUMP JUMPDEST SWAP1 SWAP4 SWAP2 POP PUSH1 0x0 MSTORE PUSH1 0x20 SWAP1 DUP2 PUSH1 0x0 KECCAK256 SWAP4 PUSH1 0x0 SWAP2 JUMPDEST DUP2 DUP4 LT PUSH2 0x147F JUMPI POP POP PUSH2 0x1452 SWAP4 POP DUP3 ADD ADD CODESIZE DUP1 PUSH2 0x1444 JUMP JUMPDEST DUP6 SLOAD DUP9 DUP5 ADD DUP6 ADD MSTORE SWAP5 DUP6 ADD SWAP5 DUP8 SWAP5 POP SWAP2 DUP4 ADD SWAP2 PUSH2 0x1467 JUMP JUMPDEST SWAP2 POP POP PUSH2 0x1452 SWAP5 POP PUSH1 0x20 SWAP3 POP PUSH1 0xFF NOT AND DUP3 DUP5 ADD MSTORE ISZERO ISZERO PUSH1 0x5 SHL DUP3 ADD ADD CODESIZE DUP1 PUSH2 0x1444 JUMP JUMPDEST PUSH1 0x7 SLOAD DUP2 LT ISZERO PUSH2 0x14F1 JUMPI PUSH1 0x7 PUSH1 0x0 MSTORE PUSH32 0xA66CC928B5EDB82AF9BD49922954155AB7B0942694BEA4CE44661D9A8736C688 ADD SWAP1 PUSH1 0x0 SWAP1 JUMP JUMPDEST PUSH4 0x4E487B71 PUSH1 0xE0 SHL PUSH1 0x0 MSTORE PUSH1 0x32 PUSH1 0x4 MSTORE PUSH1 0x24 PUSH1 0x0 REVERT JUMPDEST PUSH1 0x6 SLOAD DUP2 LT ISZERO PUSH2 0x14F1 JUMPI PUSH1 0x6 PUSH1 0x0 MSTORE PUSH32 0xF652222313E28459528D920B65115C16C04F3EFC82AAEDC97BE59F3F377C0D3F ADD SWAP1 PUSH1 0x0 SWAP1 JUMP JUMPDEST PUSH1 0x0 SLOAD PUSH1 0x1 PUSH1 0x1 PUSH1 0xA0 SHL SUB AND CALLER SUB PUSH2 0x1552 JUMPI JUMP JUMPDEST PUSH1 0x40 MLOAD PUSH4 0x118CDAA7 PUSH1 0xE0 SHL DUP2 MSTORE CALLER PUSH1 0x4 DUP3 ADD MSTORE PUSH1 0x24 SWAP1 REVERT JUMPDEST ISZERO PUSH2 0x1571 JUMPI JUMP JUMPDEST PUSH1 0x40 MLOAD PUSH3 0x461BCD PUSH1 0xE5 SHL DUP2 MSTORE PUSH1 0x20 PUSH1 0x4 DUP3 ADD MSTORE PUSH1 0x25 PUSH1 0x24 DUP3 ADD MSTORE PUSH32 0x4E6F7420617574686F72697A656420766572696669636174696F6E2061757468 PUSH1 0x44 DUP3 ADD MSTORE PUSH5 0x6F72697479 PUSH1 0xD8 SHL PUSH1 0x64 DUP3 ADD MSTORE PUSH1 0x84 SWAP1 REVERT JUMPDEST ISZERO PUSH2 0x15CB JUMPI JUMP JUMPDEST PUSH1 0x40 MLOAD PUSH3 0x461BCD PUSH1 0xE5 SHL DUP2 MSTORE PUSH1 0x20 PUSH1 0x4 DUP3 ADD MSTORE PUSH1 0x16 PUSH1 0x24 DUP3 ADD MSTORE PUSH22 0x141C9BD99A5B1948191BD95CC81B9BDD08195E1A5CDD PUSH1 0x52 SHL PUSH1 0x44 DUP3 ADD MSTORE PUSH1 0x64 SWAP1 REVERT JUMPDEST ISZERO PUSH2 0x1610 JUMPI JUMP JUMPDEST PUSH1 0x40 MLOAD PUSH3 0x461BCD PUSH1 0xE5 SHL DUP2 MSTORE PUSH1 0x20 PUSH1 0x4 DUP3 ADD MSTORE PUSH1 0x1A PUSH1 0x24 DUP3 ADD MSTORE PUSH32 0x496E76616C696420766572696669636174696F6E206C6576656C000000000000 PUSH1 0x44 DUP3 ADD MSTORE PUSH1 0x64 SWAP1 REVERT JUMPDEST DUP2 MLOAD SWAP2 SWAP1 PUSH1 0x41 DUP4 SUB PUSH2 0x1686 JUMPI PUSH2 0x167F SWAP3 POP PUSH1 0x20 DUP3 ADD MLOAD SWAP1 PUSH1 0x60 PUSH1 0x40 DUP5 ADD MLOAD SWAP4 ADD MLOAD PUSH1 0x0 BYTE SWAP1 PUSH2 0x1691 JUMP JUMPDEST SWAP2 SWAP3 SWAP1 SWAP2 SWAP1 JUMP JUMPDEST POP POP PUSH1 0x0 SWAP2 PUSH1 0x2 SWAP2 SWAP1 JUMP JUMPDEST SWAP2 SWAP1 PUSH32 0x7FFFFFFFFFFFFFFFFFFFFFFFFFFFFFFF5D576E7357A4501DDFE92F46681B20A0 DUP5 GT PUSH2 0x1715 JUMPI SWAP3 PUSH1 0x20 SWAP3 SWAP2 PUSH1 0xFF PUSH1 0x80 SWAP6 PUSH1 0x40 MLOAD SWAP5 DUP6 MSTORE AND DUP5 DUP5 ADD MSTORE PUSH1 0x40 DUP4 ADD MSTORE PUSH1 0x60 DUP3 ADD MSTORE PUSH1 0x0 SWAP3 DUP4 SWAP2 DUP3 DUP1 MSTORE PUSH1 0x1 GAS STATICCALL ISZERO PUSH2 0x1709 JUMPI DUP1 MLOAD PUSH1 0x1 PUSH1 0x1 PUSH1 0xA0 SHL SUB DUP2 AND ISZERO PUSH2 0x1700 JUMPI SWAP2 DUP2 SWAP1 JUMP JUMPDEST POP DUP1 SWAP2 PUSH1 0x1 SWAP2 SWAP1 JUMP JUMPDEST PUSH1 0x40 MLOAD SWAP1 RETURNDATASIZE SWAP1 DUP3 RETURNDATACOPY RETURNDATASIZE SWAP1 REVERT JUMPDEST POP POP POP PUSH1 0x0 SWAP2 PUSH1 0x3 SWAP2 SWAP1 JUMP JUMPDEST PUSH1 0x4 DUP2 LT ISZERO PUSH2 0x1790 JUMPI DUP1 PUSH2 0x1733 JUMPI POP POP JUMP JUMPDEST PUSH1 0x1 DUP2 SUB PUSH2 0x174D JUMPI PUSH1 0x40 MLOAD PUSH4 0xF645EEDF PUSH1 0xE0 SHL DUP2 MSTORE PUSH1 0x4 SWAP1 REVERT JUMPDEST PUSH1 0x2 DUP2 SUB PUSH2 0x176E JUMPI PUSH1 0x40 MLOAD PUSH4 0xFCE698F7 PUSH1 0xE0 SHL DUP2 MSTORE PUSH1 0x4 DUP2 ADD DUP4 SWAP1 MSTORE PUSH1 0x24 SWAP1 REVERT JUMPDEST PUSH1 0x3 EQ PUSH2 0x1778 JUMPI POP JUMP JUMPDEST PUSH1 0x24 SWAP1 PUSH1 0x40 MLOAD SWAP1 PUSH4 0x35E2F383 PUSH1 0xE2 SHL DUP3 MSTORE PUSH1 0x4 DUP3 ADD MSTORE REVERT JUMPDEST PUSH4 0x4E487B71 PUSH1 0xE0 SHL PUSH1 0x0 MSTORE PUSH1 0x21 PUSH1 0x4 MSTORE PUSH1 0x24 PUSH1 0x0 REVERT JUMPDEST SWAP2 SWAP1 DUP2 LT ISZERO PUSH2 0x14F1 JUMPI PUSH1 0x5 SHL ADD SWAP1 JUMP INVALID LOG2 PUSH5 0x6970667358 0x22 SLT KECCAK256 CHAINID SLOAD 0x5C PUSH3 0x691528 0x28 MULMOD 0xD7 0xB9 SLOAD 0x22 PUSH22 0x227F8D6ADF7B8C90D224B39CA0DF86D74CF964736F6C PUSH4 0x43000814 STOP CALLER "},"methodIdentifiers":{"addVerificationAuthority(address,string)":"2551cb87","addressToProfileId(address)":"070117c4","allProfileIds(uint256)":"84b2245e","authorityAddresses(uint256)":"b69dab68","batchVerifyProfiles(bytes32[],uint8)":"5ac4bfc0","createTouristProfile(bytes32,bytes32,string,string)":"7f9f0189","emergencyAccess(bytes32)":"36677f34","getProfile(bytes32)":"b50991b4","getProfileIdByAddress(address)":"4af1dc7a","getTotalProfiles()":"bab17ce9","getVerificationLevel(bytes32)":"cc8bfbf5","isProfileVerified(bytes32)":"fb2c5577","owner()":"8da5cb5b","renounceOwnership()":"715018a6","revokeProfile(bytes32,string)":"8a4a2244","revokedProfiles(bytes32)":"926c643a","touristProfiles(bytes32)":"50952965","transferOwnership(address)":"f2fde38b","verificationAuthorities(address)":"608ae435","verifyProfile(bytes32,uint8)":"173e5660","verifyProfileSignature(bytes32,bytes32,bytes)":"3fdea870"}}}}}