{
  "_format": "hh-sol-artifact-1",
  "contractName": "TouristID",
  "sourceName": "contracts/TouristID.sol",
  "abi": [
    {
      "inputs": [],
      "stateMutability": "nonpayable",
      "type": "constructor"
    },
    {
      "inputs": [],
      "name": "ECDSAInvalidSignature",
      "type": "error"
    },
    {
      "inputs": [
        {
          "internalType": "uint256",
          "name": "length",
          "type": "uint256"
        }
      ],
      "name": "ECDSAInvalidSignatureLength",
      "type": "error"
    },
    {
      "inputs": [
        {
          "internalType": "bytes32",
          "name": "s",
          "type": "bytes32"
        }
      ],
      "name": "ECDSAInvalidSignatureS",
      "type": "error"
    },
    {
      "inputs": [
        {
          "internalType": "address",
          "name": "owner",
          "type": "address"
        }
      ],
      "name": "OwnableInvalidOwner",
      "type": "error"
    },
    {
      "inputs": [
        {
          "internalType": "address",
          "name": "account",
          "type": "address"
        }
      ],
      "name": "OwnableUnauthorizedAccount",
      "type": "error"
    },
    {
      "inputs": [],
      "name": "ReentrancyGuardReentrantCall",
      "type": "error"
    },
    {
      "anonymous": false,
      "inputs": [
        {
          "indexed": true,
          "internalType": "address",
          "name": "authority",
          "type": "address"
        },
        {
          "indexed": false,
          "internalType": "string",
          "name": "name",
          "type": "string"
        },
        {
          "indexed": false,
          "internalType": "uint256",
          "name": "timestamp",
          "type": "uint256"
        }
      ],
      "name": "AuthorityAdded",
      "type": "event"
    },
    {
      "anonymous": false,
      "inputs": [
        {
          "indexed": true,
          "internalType": "bytes32",
          "name": "profileId",
          "type": "bytes32"
        },
        {
          "indexed": true,
          "internalType": "address",
          "name": "accessor",
          "type": "address"
        },
        {
          "indexed": false,
          "internalType": "uint256",
          "name": "timestamp",
          "type": "uint256"
        }
      ],
      "name": "EmergencyAccessed",
      "type": "event"
    },
    {
      "anonymous": false,
      "inputs": [
        {
          "indexed": true,
          "internalType": "address",
          "name": "previousOwner",
          "type": "address"
        },
        {
          "indexed": true,
          "internalType": "address",
          "name": "newOwner",
          "type": "address"
        }
      ],
      "name": "OwnershipTransferred",
      "type": "event"
    },
    {
      "anonymous": false,
      "inputs": [
        {
          "indexed": true,
          "internalType": "bytes32",
          "name": "profileId",
          "type": "bytes32"
        },
        {
          "indexed": true,
          "internalType": "address",
          "name": "touristAddress",
          "type": "address"
        },
        {
          "indexed": false,
          "internalType": "bytes32",
          "name": "profileHash",
          "type": "bytes32"
        },
        {
          "indexed": false,
          "internalType": "uint256",
          "name": "timestamp",
          "type": "uint256"
        }
      ],
      "name": "ProfileCreated",
      "type": "event"
    },
    {
      "anonymous": false,
      "inputs": [
        {
          "indexed": true,
          "internalType": "bytes32",
          "name": "profileId",
          "type": "bytes32"
        },
        {
          "indexed": true,
          "internalType": "address",
          "name": "authority",
          "type": "address"
        },
        {
          "indexed": false,
          "internalType": "string",
          "name": "reason",
          "type": "string"
        },
        {
          "indexed": false,
          "internalType": "uint256",
          "name": "timestamp",
          "type": "uint256"
        }
      ],
      "name": "ProfileRevoked",
      "type": "event"
    },
    {
      "anonymous": false,
      "inputs": [
        {
          "indexed": true,
          "internalType": "bytes32",
          "name": "profileId",
          "type": "bytes32"
        },
        {
          "indexed": true,
          "internalType": "address",
          "name": "authority",
          "type": "address"
        },
        {
          "indexed": false,
          "internalType": "uint8",
          "name": "verificationLevel",
          "type": "uint8"
        },
        {
          "indexed": false,
          "internalType": "uint256",
          "name": "timestamp",
          "type": "uint256"
        }
      ],
      "name": "ProfileVerified",
      "type": "event"
    },
    {
      "inputs": [
        {
          "internalType": "address",
          "name": "_authority",
          "type": "address"
        },
        {
          "internalType": "string",
          "name": "_name",
          "type": "string"
        }
      ],
      "name": "addVerificationAuthority",
      "outputs": [],
      "stateMutability": "nonpayable",
      "type": "function"
    },
    {
      "inputs": [
        {
          "internalType": "address",
          "name": "",
          "type": "address"
        }
      ],
      "name": "addressToProfileId",
      "outputs": [
        {
          "internalType": "bytes32",
          "name": "",
          "type": "bytes32"
        }
      ],
      "stateMutability": "view",
      "type": "function"
    },
    {
      "inputs": [
        {
          "internalType": "uint256",
          "name": "",
          "type": "uint256"
        }
      ],
      "name": "allProfileIds",
      "outputs": [
        {
          "internalType": "bytes32",
          "name": "",
          "type": "bytes32"
        }
      ],
      "stateMutability": "view",
      "type": "function"
    },
    {
      "inputs": [
        {
          "internalType": "uint256",
          "name": "",
          "type": "uint256"
        }
      ],
      "name": "authorityAddresses",
      "outputs": [
        {
          "internalType": "address",
          "name": "",
          "type": "address"
        }
      ],
      "stateMutability": "view",
      "type": "function"
    },
    {
      "inputs": [
        {
          "internalType": "bytes32[]",
          "name": "_profileIds",
          "type": "bytes32[]"
        },
        {
          "internalType": "uint8",
          "name": "_verificationLevel",
          "type": "uint8"
        }
      ],
      "name": "batchVerifyProfiles",
      "outputs": [],
      "stateMutability": "nonpayable",
      "type": "function"
    },
    {
      "inputs": [
        {
          "internalType": "bytes32",
          "name": "_profileHash",
          "type": "bytes32"
        },
        {
          "internalType": "bytes32",
          "name": "_documentHash",
          "type": "bytes32"
        },
        {
          "internalType": "string",
          "name": "_ipfsDocumentHash",
          "type": "string"
        },
        {
          "internalType": "string",
          "name": "_emergencyContact",
          "type": "string"
        }
      ],
      "name": "createTouristProfile",
      "outputs": [
        {
          "internalType": "bytes32",
          "name": "",
          "type": "bytes32"
        }
      ],
      "stateMutability": "nonpayable",
      "type": "function"
    },
    {
      "inputs": [
        {
          "internalType": "bytes32",
          "name": "_profileId",
          "type": "bytes32"
        }
      ],
      "name": "emergencyAccess",
      "outputs": [
        {
          "internalType": "string",
          "name": "",
          "type": "string"
        }
      ],
      "stateMutability": "nonpayable",
      "type": "function"
    },
    {
      "inputs": [
        {
          "internalType": "bytes32",
          "name": "_profileId",
          "type": "bytes32"
        }
      ],
      "name": "getProfile",
      "outputs": [
        {
          "internalType": "bytes32",
          "name": "profileHash",
          "type": "bytes32"
        },
        {
          "internalType": "bytes32",
          "name": "documentHash",
          "type": "bytes32"
        },
        {
          "internalType": "string",
          "name": "ipfsDocumentHash",
          "type": "string"
        },
        {
          "internalType": "address",
          "name": "touristAddress",
          "type": "address"
        },
        {
          "internalType": "uint256",
          "name": "createdAt",
          "type": "uint256"
        },
        {
          "internalType": "uint8",
          "name": "verificationLevel",
          "type": "uint8"
        },
        {
          "internalType": "bool",
          "name": "isActive",
          "type": "bool"
        }
      ],
      "stateMutability": "view",
      "type": "function"
    },
    {
      "inputs": [
        {
          "internalType": "address",
          "name": "_touristAddress",
          "type": "address"
        }
      ],
      "name": "getProfileIdByAddress",
      "outputs": [
        {
          "internalType": "bytes32",
          "name": "",
          "type": "bytes32"
        }
      ],
      "stateMutability": "view",
      "type": "function"
    },
    {
      "inputs": [],
      "name": "getTotalProfiles",
      "outputs": [
        {
          "internalType": "uint256",
          "name": "",
          "type": "uint256"
        }
      ],
      "stateMutability": "view",
      "type": "function"
    },
    {
      "inputs": [
        {
          "internalType": "bytes32",
          "name": "_profileId",
          "type": "bytes32"
        }
      ],
      "name": "getVerificationLevel",
      "outputs": [
        {
          "internalType": "uint8",
          "name": "",
          "type": "uint8"
        }
      ],
      "stateMutability": "view",
      "type": "function"
    },
    {
      "inputs": [
        {
          "internalType": "bytes32",
          "name": "_profileId",
          "type": "bytes32"
        }
      ],
      "name": "isProfileVerified",
      "outputs": [
        {
          "internalType": "bool",
          "name": "",
          "type": "bool"
        }
      ],
      "stateMutability": "view",
      "type": "function"
    },
    {
      "inputs": [],
      "name": "owner",
      "outputs": [
        {
          "internalType": "address",
          "name": "",
          "type": "address"
        }
      ],
      "stateMutability": "view",
      "type": "function"
    },
    {
      "inputs": [],
      "name": "renounceOwnership",
      "outputs": [],
      "stateMutability": "nonpayable",
      "type": "function"
    },
    {
      "inputs": [
        {
          "internalType": "bytes32",
          "name": "_profileId",
          "type": "bytes32"
        },
        {
          "internalType": "string",
          "name": "_reason",
          "type": "string"
        }
      ],
      "name": "revokeProfile",
      "outputs": [],
      "stateMutability": "nonpayable",
      "type": "function"
    },
    {
      "inputs": [
        {
          "internalType": "bytes32",
          "name": "",
          "type": "bytes32"
        }
      ],
      "name": "revokedProfiles",
      "outputs": [
        {
          "internalType": "bool",
          "name": "",
          "type": "bool"
        }
      ],
      "stateMutability": "view",
      "type": "function"
    },
    {
      "inputs": [
        {
          "internalType": "bytes32",
          "name": "",
          "type": "bytes32"
        }
      ],
      "name": "touristProfiles",
      "outputs": [
        {
          "internalType": "bytes32",
          "name": "profileHash",
          "type": "bytes32"
        },
        {
          "internalType": "bytes32",
          "name": "documentHash",
          "type": "bytes32"
        },
        {
          "internalType": "string",
          "name": "ipfsDocumentHash",
          "type": "string"
        },
        {
          "internalType": "address",
          "name": "touristAddress",
          "type": "address"
        },
        {
          "internalType": "uint256",
          "name": "createdAt",
          "type": "uint256"
        },
        {
          "internalType": "uint8",
          "name": "verificationLevel",
          "type": "uint8"
        },
        {
          "internalType": "bool",
          "name": "isActive",
          "type": "bool"
        },
        {
          "internalType": "string",
          "name": "emergencyContact",
          "type": "string"
        }
      ],
      "stateMutability": "view",
      "type": "function"
    },
    {
      "inputs": [
        {
          "internalType": "address",
          "name": "newOwner",
          "type": "address"
        }
      ],
      "name": "transferOwnership",
      "outputs": [],
      "stateMutability": "nonpayable",
      "type": "function"
    },
    {
      "inputs": [
        {
          "internalType": "address",
          "name": "",
          "type": "address"
        }
      ],
      "name": "verificationAuthorities",
      "outputs": [
        {
          "internalType": "address",
          "name": "authority",
          "type": "address"
        },
        {
          "internalType": "string",
          "name": "name",
          "type": "string"
        },
        {
          "internalType": "bool",
          "name": "isActive",
          "type": "bool"
        },
        {
          "internalType": "uint256",
          "name": "addedAt",
          "type": "uint256"
        }
      ],
      "stateMutability": "view",
      "type": "function"
    },
    {
      "inputs": [
        {
          "internalType": "bytes32",
          "name": "_profileId",
          "type": "bytes32"
        },
        {
          "internalType": "uint8",
          "name": "_verificationLevel",
          "type": "uint8"
        }
      ],
      "name": "verifyProfile",
      "outputs": [],
      "stateMutability": "nonpayable",
      "type": "function"
    },
    {
      "inputs": [
        {
          "internalType": "bytes32",
          "name": "_profileId",
          "type": "bytes32"
        },
        {
          "internalType": "bytes32",
          "name": "_message",
          "type": "bytes32"
        },
        {
          "internalType": "bytes",
          "name": "_signature",
          "type": "bytes"
        }
      ],
      "name": "verifyProfileSignature",
      "outputs": [
        {
          "internalType": "bool",
          "name": "",
          "type": "bool"
        }
      ],
      "stateMutability": "view",
      "type": "function"
    }
  ],
  "bytecode": "0x608060409080825234620003415733156200032b5750600080546001600160a01b03198082163390811784556001600160a01b039283167f8be0079c531659141344cd1fd0a4f28419497f9722a3daafe3b4186f6b6457e08580a3600180805584516001600160401b0394906080810186811182821017620003175787523381528651948786018681108882111762000303578852601486527f53797374656d2041646d696e6973747261746f7200000000000000000000000096602096888882015287840190815289840191868352606085019342855233875260048a528b87209551168886541617855586850191518051918211620002ef5782548881811c91168015620002e4575b8b821014620002d057601f811162000285575b508990601f83116001146200021957600395949392918891836200020d575b505060001982871b1c191690881b1790555b600284019051151560ff80198354169116179055519101556007549168010000000000000000831015620001f957820180600755821015620001e5578060078592522001903390825416179055825191838352601484840152606083015242908201527f54e81c259e04bcea04e7cb5c69e158fac7ddece0b1a19eefa2954cd6425c959960803392a2516117ec9081620003478239f35b634e487b7160e01b81526032600452602490fd5b634e487b7160e01b82526041600452602482fd5b0151905038806200013c565b949392918891601f19821690848a528c8a20918d8b905b8282106200026d57505097836003991062000254575b505050811b0190556200014e565b015160001983891b60f8161c1916905538808062000246565b838b015185558d969094019392830192018e62000230565b8388528a8820601f840160051c8101918c8510620002c5575b601f0160051c019089905b828110620002b95750506200011d565b898155018990620002a9565b90915081906200029e565b634e487b7160e01b88526022600452602488fd5b90607f16906200010a565b634e487b7160e01b87526041600452602487fd5b634e487b7160e01b84526041600452602484fd5b634e487b7160e01b83526041600452602483fd5b631e4fbdf760e01b815260006004820152602490fd5b600080fdfe608080604052600436101561001357600080fd5b60003560e01c908163070117c4146112b757508063173e5660146111dc5780632551cb8714610ef757806336677f3414610e535780633fdea87014610d005780634af1dc7a14610cc65780635095296514610c175780635ac4bfc014610abd578063608ae43514610a42578063715018a6146109e95780637f9f01891461049b57806384b2245e146104645780638a4a2244146103825780638da5cb5b14610359578063926c643a14610328578063b50991b41461025a578063b69dab6814610218578063bab17ce9146101fa578063cc8bfbf5146101c8578063f2fde38b1461013f5763fb2c55771461010657600080fd5b3461013a57602036600319011261013a576004356000526002602052602060ff600560406000200154161515604051908152f35b600080fd5b3461013a57602036600319011261013a576101586112ed565b61016061153e565b6001600160a01b039081169081156101af57600054826001600160601b0360a01b821617600055167f8be0079c531659141344cd1fd0a4f28419497f9722a3daafe3b4186f6b6457e0600080a3005b604051631e4fbdf760e01b815260006004820152602490fd5b3461013a57602036600319011261013a576004356000526002602052602060ff60056040600020015416604051908152f35b3461013a57600036600319011261013a576020600654604051908152f35b3461013a57602036600319011261013a5760043560075481101561013a576102416020916114ba565b905460405160039290921b1c6001600160a01b03168152f35b3461013a57602036600319011261013a5760043580600052600260205261028a60046040600020015415156115c4565b6000526002602052604060002060058101549060ff8260081c169081610312575b80549160ff60018301549460018060a01b03600385015416936102f66102d8600260048401549301611414565b6040519889988952602089015260e0604089015260e088019061139a565b94606087015260808601521660a0840152151560c08301520390f35b600560205260406000205460ff161591506102ab565b3461013a57602036600319011261013a576004356000526005602052602060ff604060002054166040519015158152f35b3461013a57600036600319011261013a576000546040516001600160a01b039091168152602090f35b3461013a57604036600319011261013a5760043560243567ffffffffffffffff811161013a576103b690369060040161137c565b903360005260046020526103d460ff6002604060002001541661156a565b8060005260026020526103f060046040600020015415156115c4565b8060005260056020526040600020600160ff198254161790556002602052600560406000200161ff001981541690557f37cdc8c47aacef4d4b12b5824d1654b4650107c2aa06a6d76a71b580864e925b6104556040519360408552604085019061139a565b924260208201528033940390a3005b3461013a57602036600319011261013a5760043560065481101561013a5761048d602091611507565b90546040519160031b1c8152f35b3461013a57608036600319011261013a5760243560443567ffffffffffffffff811161013a576104cf90369060040161137c565b9060643567ffffffffffffffff811161013a576104f090369060040161137c565b906002600154146109d75760026001556004351561099b57801561095e573360005260036020526040600020546109095760405192602084019160043583528060408601523360601b60608601524260748601524460948601526094855260c085019285841067ffffffffffffffff851117610772578360405285519020936101c0860184811067ffffffffffffffff82111761077257604052600435845260e0860191825261010086019283523361012087015242610140870152600061016087015260016101808701526101a08601528360005260026020526040600020925183555160018301555180519067ffffffffffffffff8211610772576105fa60028401546113da565b601f81116108c2575b50602090601f831160011461084c5791806101a09492600694600092610841575b50508160011b916000199060031b1c19161760028201555b6003810160018060a01b03610120870151166001600160601b0360a01b82541617905561014085015160048201556005810160ff6101608701511681549061ff00610180890151151560081b169161ffff1916171790550192015191825167ffffffffffffffff8111610772576106b382546113da565b601f81116107f9575b506020601f82116001146107935781929394600092610788575b50508160011b916000199060031b1c19161790555b3360005260036020528060406000205560065490600160401b8210156107725761071d82600160209401600655611507565b81549060031b9083821b91600019901b191617905560405160043581524283820152817f12b80ffb2a05f75dc3234f6d754502fc4b2f889b30622872e21f26116bd9f49060403393a360018055604051908152f35b634e487b7160e01b600052604160045260246000fd5b0151905084806106d6565b601f198216908360005260206000209160005b8181106107e1575095836001959697106107c8575b505050811b0190556106eb565b015160001960f88460031b161c191690558480806107bb565b9192602060018192868b0151815501940192016107a6565b826000526020600020601f830160051c81019160208410610837575b601f0160051c01905b81811061082b57506106bc565b6000815560010161081e565b9091508190610815565b015190508780610624565b906002840160005260206000209160005b601f19851681106108aa5750926101a0949260019260069583601f19811610610891575b505050811b01600282015561063c565b015160001960f88460031b161c19169055878080610881565b9192602060018192868501518155019401920161085d565b600284016000526020600020601f840160051c810160208510610902575b601f830160051c820181106108f6575050610603565b600081556001016108e0565b50806108e0565b60405162461bcd60e51b815260206004820152602760248201527f50726f66696c6520616c72656164792065786973747320666f722074686973206044820152666164647265737360c81b6064820152608490fd5b60405162461bcd60e51b8152602060048201526015602482015274092dcecc2d8d2c840c8dec6eadacadce840d0c2e6d605b1b6044820152606490fd5b60405162461bcd60e51b8152602060048201526014602482015273092dcecc2d8d2c840e0e4deccd2d8ca40d0c2e6d60631b6044820152606490fd5b604051633ee5aeb560e01b8152600490fd5b3461013a57600036600319011261013a57610a0261153e565b600080546001600160a01b0319811682556001600160a01b03167f8be0079c531659141344cd1fd0a4f28419497f9722a3daafe3b4186f6b6457e08280a3005b3461013a57602036600319011261013a576001600160a01b0380610a646112ed565b166000526004602052604060002090815416610a8260018301611414565b91600360ff600283015416910154610aac604051948594855260806020860152608085019061139a565b911515604084015260608301520390f35b3461013a57604036600319011261013a5767ffffffffffffffff60043581811161013a573660238201121561013a57806004013591821161013a5760248082019260059282369183861b01011161013a57610b16611303565b903360005260209060048252600290610b3860ff83604060002001541661156a565b60019660ff85168881101580610c0d575b610b5290611609565b60005b838110610b5e57005b610b698185856117a6565b35600052848652600460406000200154610ba3575b6000198114610b8e578901610b55565b87634e487b7160e01b60005260116004526000fd5b610bae8185856117a6565b35600052848652886040600020018260ff19825416179055610bd18185856117a6565b6040805160ff8a168152426020820152339235917fa14aab4de4b6c7da4decdd5a02c67d162ab06e051badec5ab309376b413f4efb91a3610b7e565b5083811115610b49565b3461013a57602036600319011261013a57600435600052600260205260406000208054610cc2600183015492610c4f60028201611414565b60ff60018060a01b03600384015416926004810154610c97610c78600660058501549401611414565b94604051998a998a5260208a01526101008060408b015289019061139a565b946060880152608087015281811660a087015260081c16151560c085015283820360e085015261139a565b0390f35b3461013a57602036600319011261013a576001600160a01b03610ce76112ed565b1660005260036020526020604060002054604051908152f35b3461013a57606036600319011261013a5760043560443567ffffffffffffffff811161013a573660238201121561013a57610d45903690602481600401359101611335565b8160005260209160028352610d6360046040600020015415156115c4565b806000526002835260ff60056040600020015460081c1615610e1657806000526005835260ff60406000205416610dd15790610dc7916000526002835260018060a01b03610dbe816003604060002001541692602435611655565b90949194611721565b6040519216148152f35b60405162461bcd60e51b815260048101849052601860248201527f50726f66696c6520686173206265656e207265766f6b656400000000000000006044820152606490fd5b60405162461bcd60e51b815260048101849052601560248201527450726f66696c65206973206e6f742061637469766560581b6044820152606490fd5b3461013a5760208060031936011261013a576004353360005260048252610e8460ff6002604060002001541661156a565b8060005260028252610e9f60046040600020015415156115c4565b604051428152817fec24f061e280cd3bd040dc2005c4fbeb0f7f045a944cb941723cea128bf3f583843393a360005260028152610ee26006604060002001611414565b90610cc260405192828493845283019061139a565b3461013a57604036600319011261013a57610f106112ed565b67ffffffffffffffff60243581811161013a57610f3190369060040161137c565b91610f3a61153e565b6001600160a01b03908116928315611197578360005260206004815260ff60026040600020015416611153576040516080810181811086821117610772576040528581528181019483865260408201600196878252606084019242845289600052600486528760406000209551166001600160601b0360a01b8654161785558885019151805191821161077257610fd183546113da565b601f811161110a575b508690601f83116001146110a2576003959493929160009183611097575b505060001982871b1c1916908a1b1790555b600284019051151560ff801983541691161790555191015560075492600160401b84101561077257611065847f54e81c259e04bcea04e7cb5c69e158fac7ddece0b1a19eefa2954cd6425c95999661108c96016007556114ba565b819291549060031b9188831b921b191617905560405192839260408452604084019061139a565b9042908301520390a2005b015190508c80610ff8565b949392918a91601f1982169084600052896000209160005b8b8282106110f45750509783600399106110dc575b505050811b01905561100a565b015160001983891b60f8161c191690558c80806110cf565b838b015185558f969094019392830192016110ba565b8360005287600020601f840160051c810191898510611149575b601f0160051c01908b905b82811061113d575050610fda565b60008155018b9061112f565b9091508190611124565b6064906040519062461bcd60e51b82526004820152601860248201527f417574686f7269747920616c72656164792065786973747300000000000000006044820152fd5b60405162461bcd60e51b815260206004820152601960248201527f496e76616c696420617574686f726974792061646472657373000000000000006044820152606490fd5b3461013a57604036600319011261013a576004356111f8611303565b9033600052600460205261121660ff6002604060002001541661156a565b80600052600260205261123260046040600020015415156115c4565b60ff82166001811015806112ac575b61124a90611609565b81600052600260205260056040600020019060ff198254161790557fa14aab4de4b6c7da4decdd5a02c67d162ab06e051badec5ab309376b413f4efb604051806112a733954290836020909392919360ff60408201951681520152565b0390a3005b506002811115611241565b3461013a57602036600319011261013a576020906001600160a01b036112db6112ed565b16600052600382526040600020548152f35b600435906001600160a01b038216820361013a57565b6024359060ff8216820361013a57565b90601f8019910116810190811067ffffffffffffffff82111761077257604052565b92919267ffffffffffffffff8211610772576040519161135f601f8201601f191660200184611313565b82948184528183011161013a578281602093846000960137010152565b9080601f8301121561013a5781602061139793359101611335565b90565b919082519283825260005b8481106113c6575050826000602080949584010152601f8019910116010190565b6020818301810151848301820152016113a5565b90600182811c9216801561140a575b60208310146113f457565b634e487b7160e01b600052602260045260246000fd5b91607f16916113e9565b9060405191826000825492611428846113da565b9081845260019485811690816000146114975750600114611454575b505061145292500383611313565b565b9093915060005260209081600020936000915b81831061147f57505061145293508201013880611444565b85548884018501529485019487945091830191611467565b91505061145294506020925060ff191682840152151560051b8201013880611444565b6007548110156114f15760076000527fa66cc928b5edb82af9bd49922954155ab7b0942694bea4ce44661d9a8736c6880190600090565b634e487b7160e01b600052603260045260246000fd5b6006548110156114f15760066000527ff652222313e28459528d920b65115c16c04f3efc82aaedc97be59f3f377c0d3f0190600090565b6000546001600160a01b0316330361155257565b60405163118cdaa760e01b8152336004820152602490fd5b1561157157565b60405162461bcd60e51b815260206004820152602560248201527f4e6f7420617574686f72697a656420766572696669636174696f6e20617574686044820152646f7269747960d81b6064820152608490fd5b156115cb57565b60405162461bcd60e51b8152602060048201526016602482015275141c9bd99a5b1948191bd95cc81b9bdd08195e1a5cdd60521b6044820152606490fd5b1561161057565b60405162461bcd60e51b815260206004820152601a60248201527f496e76616c696420766572696669636174696f6e206c6576656c0000000000006044820152606490fd5b81519190604183036116865761167f92506020820151906060604084015193015160001a90611691565b9192909190565b505060009160029190565b91907f7fffffffffffffffffffffffffffffff5d576e7357a4501ddfe92f46681b20a0841161171557926020929160ff608095604051948552168484015260408301526060820152600092839182805260015afa156117095780516001600160a01b0381161561170057918190565b50809160019190565b604051903d90823e3d90fd5b50505060009160039190565b60048110156117905780611733575050565b6001810361174d5760405163f645eedf60e01b8152600490fd5b6002810361176e5760405163fce698f760e01b815260048101839052602490fd5b6003146117785750565b602490604051906335e2f38360e21b82526004820152fd5b634e487b7160e01b600052602160045260246000fd5b91908110156114f15760051b019056fea264697066735822122046545c626915282809d7b9542275227f8d6adf7b8c90d224b39ca0df86d74cf964736f6c63430008140033",
  "linkReferences": {},
  "deployedLinkReferences": {}
}